:1017000012010002000000402A151B8400000102A3
:1017100003010A060002000000400100090219004E
:1017200001010080C80904000001FF000000070556
:1017300082020002000902190001010080C80904A8
:10174000000001FF000000070582024000000403C2
:101750000904080349004E004900140344004100F5
:101760005600690053002000460058003200120362
:1017700030003000300030003000300030003000E9
:1017800012034D0053004600540031003000300079
:04179000AF000000A6
:03004300021500A3
:0300530002150093
:101500000224B7000224F4000224E1000200420099
:101510000223E5000224070002257400022575005D
:101520000225760002257700022578000225790041
:1015300002257A0002257B0002257C0002257D0021
:1015400002257E000225750002257F00022580000D
:1015500002258100022582000225830002258400E5
:1015600002258500022575000225750002257500FB
:1015700002258600022587000225880002258900B1
:1015800002258A0002258B0002258C0002258D0091
:1015900002258E0002258F00022590000225910071
:1015A0000225920002259300022594000225950051
:0815B0000225960002259700B8
:0A251F000001020203030404050595
:10227700EC4EFEED4F241FF58274253EF583E49363
:10228700FF3395E0FEEF24A1FFEE34E68F82F5835E
:102297002290E6BCE0547EFF7E00E0D394807C0071
:0122A7002214
:10165800C200C202C2011211BCC2AF750C17750DCF
:1016680000751417751512750A17750B1C75121766
:1016780075133575161775174E750817750980D2C5
:10168800E890E668E04409F090E65CE04435F0D282
:10169800AF121F531213D290E680E020E105D20466
:1016A8001222A890E680E054F7F0538EF8C2031295
:1016B8000032300105120AC2C2013003F21200469C
:1016C80050EDC20312235520001690E682E030E761
:1016D80004E020E1EF90E682E030E604E020E0E478
:0816E8001222D712004E80C748
:0216FE00D322F5
:100AC20090E6B9E07003020B7E147003020BCA2495
:100AD200FE7003020C1C24FB7003020B78147003DB
:100AE200020C5F147003020B72147003020C5F2479
:100AF200056003020C5390E6BBE024FE60271460FD
:100B02003824FD601114602724067061E50C90E61C
:100B1200B3F0E50D804D1216FE504FE51490E6B38A
:100B2200F0E515803EE50E90E6B3F0E50F8034E582
:100B32001090E6B3F0E511802A90E6BAE0B4EE0A2E
:100B4200E50890E6B3F0E509801990E6BAE0FF12F5
:100B52002303AA06A9077B01EA494B600DEE90E642
:100B6200B3F0EF90E6B4F0020C5F020C4E020C4EB2
:100B7200122507020C5F120036020C5F90E6B8E005
:100B8200247F60151460192402703AA200E4332510
:100B9200E0FFA202E4334F8018E490E740F08016B1
:100BA20012229840047D0180027D00122277E054D7
:100BB2000190E740F0E4A3F090E68AF090E68B74AF
:100BC20002F0020C5F020C4E90E6B8E024FE6016C2
:100BD20024026003020C5F90E6BAE0B40105C20091
:100BE200020C5F020C4E90E6BAE0702C1222984082
:100BF200047D0180027D00122277E054FEF090E62F
:100C0200BCE05480131313541FFFE0540F2F90E6DF
:100C120083F0E04420F08045803290E6B8E024FE84
:100C2200601A2402702690E6BAE0B40104D2008071
:100C32002C90E6BAE0B4020280238010122298407F
:100C4200047D0180027D00122277800D90E6A08053
:100C520008120479500790E6A0E04401F090E6A063
:040C6200E04480F0FA
:010C6600226B
:0300330002257033
:0425700053D8EF321B
:10209900412E4E0141304F00602C2E2200000000DD
:1020A9000000000000000000000000000000000027
:1020B9000000000000000000000000000000000017
:1020C9000000000000000000473050000000000040
:0520D9000000011E00E3
:1010AD00F0E4A3F0A3F0A3F0A3F0A3F0A3F0A3F05A
:1010BD00A3F0A322F0E490E68AF090E68B22C3E53C
:1010CD00249528F524E5239527F52322744025261C
:1010DD00F582E434E7F583228D828C83A3E0FF1241
:1010ED0024298D828C83A3A322ED2404F582E43C74
:1010FD00F583E02214244FF582742E3AF583EFF038
:10110D000526E52622E0FF12242953B1FDE4F51E44
:10111D002290E68BE0FFC3E5249FF524E5239400A0
:10112D00F5232290E68BE0752700F52822C3E526EE
:10113D009528E5259527225391EF90E65D22F08DB8
:10114D00828C83A3E02290E68BE0FFC3E5269FE52A
:10115D0025940022E5282522F522E5273521F521C4
:10116D0022850A0E850B0F8512108513112285120B
:10117D000E85130F850A10850B1122E0FF0528E55A
:10118D0028AA2722E5246402452322C3E5229416CA
:10119D00E521940022FF122383AF05022383C3E5CB
:0F11AD00249440E52394002275B40E902E4E2218
:1011BC0090E6007410F090E60174A3F0E4F5A875C5
:1011CC00E8E30000000090E60B7403F00000000060
:1011DC00E490E670F00000000090E671F000000072
:1011EC000090E672F000000000F58075A0B875B1B3
:1011FC002300000000F5B275B40E75B6F7000000C0
:10120C000090E61274E0F00000000090E610E0544C
:10121C007FF00000000090E611E0547FF000000029
:10122C000090E613E0547FF00000000090E614E01C
:10123C00547FF00000000090E615E0547FF00000B1
:10124C00000090E6047480F0000000007482F0004E
:10125C00000000E4F00000000090E6187409F000B3
:10126C0000000090E60274C4F000000000E490E678
:10127C0003F00000000090E6097403F00000000089
:10128C0090E62014F000000000E490E621F000004D
:10129C00000090E63074C1F00000000090E631745C
:1012AC00F2F012256290E67AE04401F043B180E45A
:0E12BC00F51E00051EE51EB414F853B17F2286
:1024290043B120E4FEEF30E70543B110800353B117
:0F243900EF53B1DF43B120EF25E0FF0EBE08E601
:012448002271
:101B4900AD07AC068D828C83E0FF90305012114BAB
:101B5900903051F01210EFE0903052F01210EFA3D4
:101B6900E0903053F01210F6903054F0ED24051245
:101B790010F9903055F0ED24061210F9903056F016
:101B890043B1041224291210E51210EAA3E0FF124E
:101B990024291210F6FF122429ED24051210F9FF49
:101BA900122429ED24061210F912111300051EE55D
:0B1BB9001EB432F843B10253B1FB220E
:10194600AD07AC0612114CFF8D828C83E0FE25E0BC
:101956002422F582E4342EF583EFF01210EFE0FF37
:10196600EE25E02423F582E4342EF583EFF053B11F
:10197600FB53B1FE8D828C8312111200051EE51EEB
:10198600B432F843B10243B1018D828C83E0C39433
:10199600145025A3E0647012114BFF5440131354E6
:1019A6003FFEEF54AF4EFF12114C5410FE25E025BA
:1019B600E04F8D828C83A3F01210E5121112000500
:0A19C6001EE51EB432F843B1022200
:09237A00A3E0FF122383A3E0FF9E
:10238300C2A2E4FEEF30E704D2A18002C2A1D2A22E
:0A239300C2A2EF25E0FF0EBE08EA2B
:01239D00221D
:10244900E4FFC2A2FED2A230A0054307018000C268
:0E245900A2EE64076004EF25E0FF0EBE08E768
:012467002252
:0A1E4E008E2B8F2C8D2D8A2E8B2FEA
:101E580043B140E4F530E530C3952D503CE52B9077
:101E68003057F0E52CA3F0E52F2530F582E4352E28
:101E7800F583E0903059F07A307B577D037F51121B
:101E88002484400453B1BF227F511221A6052CE5BA
:0D1E98002C7002052B053080BD53B1BFD367
:011EA500221A
:0A1FFD008E2B8F2C8D2D8A2E8B2F3A
:1020070043B140E52B903065F0E52CA3F07A307BA7
:10201700657D027F5112248440028025E4FFEFC3CF
:10202700952D5010E52F2FF582E4352EF58374CDCD
:10203700F00F80EAAB2FAA2EAD2D7F5112246840F6
:092047000453B1BF2253B1BFD311
:01205000226D
:101F53007F03122303EF2402FFE43EA90775210147
:101F6300F52289237A307B577D087FF87E7F121F05
:101F7300FD5031E4FF74572FF582E43430F583E0EC
:101F8300FEC39420401AEED3947E5014AB21AA22B0
:101F9300A92375F002EFA4F58285F083EE1200D039
:041FA3000FBF08D193
:011FA7002217
:1013D2007A307B577D087F387E74121FFD400302EE
:1013E20014D6903057E0644360030214D6A3E0643D
:1013F2004F60030214D6A3E0644E60030214D6A326
:10140200E0644660030214D690305BE0F523A3E06B
:10141200F524E524452370030214D6AE23AF247CC1
:10142200007D061201048E238F24E4F521F522C3E8
:10143200E5229524E521952340030214D6AE21AF7F
:10144200227C007D061200F2EF2440FFEE3474FE8F
:101452007A307B5F121FFD507090305FE0FB6405B5
:10146200704EA3E0FA6480902E4F7029F0A3F090A2
:101472003062E0902E51F0903063E0902E52F09066
:101482003064E0902E53F0E4A3F0A3F07E2E7F4F61
:10149200121B498034EAF0903063E0902E50F090B5
:1014A2003064E0902E51F07E2E7F4F121946801943
:1014B200C2A3EB547FFF122383903060E0FF12231C
:1014C2008312237A12237AD2A30522E5227002051F
:0414D20021021431AE
:0114D60022F3
:0100320022AB
:0500460043B180D3224C
:05004E0053B17FD32235
:0C003600E490E740F01210C304F0D32265
:0C250700E490E740F01210C304F0D3226F
:100479000000000090E6BAE0752100F522A3E0FE35
:10048900EE4221A3E0FDA3E0FEEEFCA3E07523000C
:10049900F524A3E0FEEE422390E6B8E05480FEA3E3
:1004A900E0FBEBFF8EF01202C9072100BD079A009D
:1004B900BE066D00BF056D00C0061D00C104E280C7
:1004C900AF075480BD084F80BE06BE80BF053C8083
:1004D900C005D380C10000086BED64044C705290D4
:1004E900E7407428F0E41210B704F0A37404F0E4B0
:1004F900A3F0A3041210AD04F0A37457F0A3744938
:10050900F0A3744EF0A37455F0A37453F0A374428E
:100519001210AD1210B2F0D3E5249428E52394000B
:1005290040067523007524281210C2E524F002083C
:100539006DD32212119170051211984002D322E550
:100549002225E0FFE52133FE74222FF582742E3E29
:10055900F583E090E740F074232FF582742E3EF581
:100569008302085F12119170051211984002D3227B
:10057900E4F527F52812118A7002052714244FF58E
:1005890082742E3AF583E522F0E524452360311281
:1005990010C2F00000000090E6A0E020E1F9E4F5C7
:1005A90025F52612115350131210D9121188700211
:1005B900052712110170EC052580E812111E80C96A
:1005C9007E2E7F4F121946020751E5246407452301
:1005D9006002D322903050E090E740F0903051E033
:1005E90090E741F0903052E090E742F0903053E0CC
:1005F90090E743F0903054E090E744F0903055E0B4
:1006090090E745F0903056E090E7461210C1740724
:10061900F002086DE524640745236002D322E4F55E
:1006290027F528E524452360311210C2F0000000A7
:100639000090E6A0E020E1F9E4F525F52612115332
:1006490050131210D9121188700205271211017066
:10065900EC052580E812111E80C97E2E7F4F121BE2
:1006690049020751E524640445236002D322C2A349
:10067900E522547F1211A2E524452360331210C2EA
:10068900F00000000090E6A0E020E1F9121130E44A
:10069900F525F52612113A50121210D9E0FF12234E
:1006A900830526E52670ED052580E91210CB80C764
:1006B900D2A3020849E524640445236002D322C277
:1006C900A3E52244801211A2E5244523604590E662
:1006D900A0E020E1F91211AB5008852327852428D1
:1006E9008006752700752840E4F525F52612113A8C
:1006F90050121224491210D9EFF00526E52670EDA3
:10070900052580E91210C2E528F00000000012104A
:10071900CB80B5D2A302086DE5244523602A1210C7
:10072900C2F00000000090E6A0E020E1F9121130CB
:10073900FD7AE77B40AF22AE21121E4E4002D32242
:100749001211611210CB80D0020849E524452370AB
:100759000302086D90E6A0E020E1F91211AB500800
:100769008523278524288006752700752840AD280C
:100779007AE77B40AF22AE21121FFD4002D322123D
:1007890011611210C2E528F0000000001210CB80A0
:10079900BA902E4EE0600E43A0B075B4BE12253358
:1007A900E4902E4EF0D3E5249400E5239402400F03
:1007B90090304F740AF01211B57401F002086DE41B
:1007C900F529F52A7B017A2E794F122513E524455F
:1007D90023604D1210C2F00000000090E6A0E02056
:1007E900E1F9121130E4F525F52612113A502012DB
:1007F90010D9E0FFE52A2526FDE5293525FC744FAA
:100809002DF582742E3C12110970DF052580DBE578
:1008190028252AF52AE5273529F5291210CB80AD97
:10082900E522452170071211B504F0801312253D08
:1008390090304FEFF0D3940040061211B57401F0D7
:100849001210C2F0801E1211916002D32290E7406B
:1008590074BEF090304FE090E7411210C17402F07D
:050869008002D322C350
:01086E002267
:1024B700C0E0C083C082D2011211447401F0D082FF
:0524C700D083D0E032DB
:1024E100C0E0C083C0821211447404F0D082D08352
:0324F100D0E03206
:1024F400C0E0C083C0821211447402F0D082D08341
:03250400D0E032F2
:1023E500C0E0C083C08290E680E030E70512116E40
:1023F500800312117B1211447410F0D082D083D067
:02240500E032C3
:01004200328B
:10240700C0E0C083C08290E680E030E70512116E1D
:10241700800312117B1211447420F0D082D083D034
:02242700E032A1
:012574003234
:012575003233
:012576003232
:012577003231
:012578003230
:01257900322F
:01257A00322E
:01257B00322D
:01257C00322C
:01257D00322B
:01257E00322A
:01257F003229
:012580003228
:012581003227
:012582003226
:012583003225
:012584003224
:012585003223
:012586003222
:012587003221
:012588003220
:01258900321F
:01258A00321E
:01258B00321D
:01258C00321C
:01258D00321B
:01258E00321A
:01258F003219
:012590003218
:012591003217
:012592003216
:012593003215
:012594003214
:012595003213
:012596003212
:012597003211
:1024A000BF0206ED24FF92A422EDBF040524FF9293
:0724B000A72224FF92A522E0
:10232E008B528A538954AB7DAA7EA97F057CE57CAE
:10233E00AE7B7002057B14F5828E8312006FAB525A
:07234E00AA53A9540200BECE
:0C251300E4F57BF57C8B7D8A7E897F22BD
:06256A00A2A6E433FF22EB
:081ACC008F6A8E698D688C673A
:101AD4007F407E427D0F7C00AB6AAA69A968A86733
:101AE400D31202084019AF6AAE69AD68AC67E47BF3
:101AF4000AFAF9F81221258F6A8E698D688C67E4D9
:101B0400F56EF56DF56CF56BAF6AAE69AD68AC67F3
:101B1400AB6EAA6DA96CA86BC31202085026E4FD33
:101B24007F011224A00D1224A0E4FAF9F8E56E2432
:101B340001F56EEA356DF56DE9356CF56CE8356BDC
:041B4400F56B80C4F9
:011B4800227A
:10205100FF2551FF239EFF1828FF1794FF0003FF60
:10206100255AFF255AFF16F0FF1DF3FF1CB8FF2567
:102071005AFF255AFF1D94FF1D94FF1D94FF1EA6B4
:10208100FF1EA6FF1EA6FF14D7FF1FA8FF1FA8FF54
:0820910015B8FF2529FF1A4EC6
:100DE800EE8FF09000061201DB900006120184FFDE
:100DF800AEF022900010120245900014120184F502
:100E08003A85F039E92416F9E43A229000091200EB
:100E18006FF56190000C1202458F658E648D638CAE
:100E280062228B55F5568957755800755900755AC1
:100E380000755B00755C00755D00755E00755F0090
:100E480075600022AB2BAA2CA92DEE8FF09000061E
:100E58000201DB903057E0FCA3E0FDA3E0FEA3E035
:100E680022AF6AAE69AD68AC67EC4D4E4F22AF65F4
:100E7800AE64AD63AC62EC4D4E4F22AC06AD0724B8
:100E880016F9E422AB67AA68A96922EEF0A3EFF08D
:100E9800D39400EE6480948222AB2EAA2FA930024C
:100EA80001DBAB2EAA2FA93090000812006FFF2299
:100EB800900006E4F5F00201DB241CF9EA34048B07
:100EC8003EF53F8940222419F9EA34028B41F54264
:100ED80089432290000102006F900006E475F00635
:100EE80022E92408F9E43AFA22E4F54BF54AF549EF
:100EF800F548F54C22903064E4F0A37405F022AB79
:100F08004DAA4EA94F22241FF9EA34062290001454
:100F1800020184AB2EAA2FA93022AB2EAA2FA9300A
:100F2800229000100202458B3BF53C893D2290003F
:100F38000A02006F75440075450075460022AB2E05
:0C0F4800AA2FA93022AB2BAA2CA92D2225
:101EFD00E41200BE9000011200D09000021202A563
:101F0D0000000000E4F5F0120E5590000BE41200F5
:101F1D00D0900008E41200D090000974011200D096
:101F2D0090000A74011200D09000101202A500005A
:101F3D000000900014120EBB90000C1202A50000C0
:061F4D000000E4FEFF228B
:1023C2008F348E338D328C31E5342407FFE435337C
:1023D200FEE43532FDE43531FCE47B08FAF9F8120B
:0323E20021252290
:1024CC00AD077F021224A0E4FD7F011224A07D0140
:0524DC007F010224A0B5
:08086F008B678A6889698D6AB4
:10087700E4903064F0A3F0E56A70357F011224CC70
:10088700E4F56BF56CE4FD7F011224A07D017F0187
:100897001224A0056CE56C7002056BC39405E56B2B
:1008A7006480948040DF120E8CE41200BE020A3589
:1008B700120E8C120056FF656A6019E56AB40704C8
:1008C700EFB4060AE56AB40E0BEF640D6006120E6C
:1008D700FD020A35E56AB5070EB4060302098BE582
:1008E7006AB40D030209F5120E8C120056FF656AF1
:1008F7007003020A35EFB410004003020A2790097B
:100907000CF828287302093C02093F020942020930
:100917005902096E02097602098B0209930209A896
:100927000209BD0209C50209DA0209E20209F50254
:1009370009FC020A0F0209AD0209B5E56AC3940969
:100947004008120A3E7409020A2F120A567403025B
:100957000A2FE56AB40408120A567404020A2F1211
:100967000A3E7405020A2F120A4A7405020A2FE585
:100977006AB40608120A6E7406020A2F120A4A742B
:1009870008020A2F120A627407020A2FE56AB404E2
:1009970008120A6E7404020A2F120A627408020A05
:1009A7002FE56AB40108120A867401020A2F120A97
:1009B7007A7402020A2F120A86740A020A2FE56A5B
:1009C700B40B08120A9E740B020A2F120A7A740CCF
:1009D700020A2F120A92740C020A2FE56AB40D0755
:1009E700120A9E740D8041120A92740F803A120AFD
:1009F700AA740E8033E56AB40B07120AB6740B802B
:100A070027120AAA740F8020E56AB40107120AB6F2
:100A1700740180147F011224CC120E8C740280089A
:100A2700120EFD120E8CE56A1200BE0208EE90301F
:060A370064E0FEA3E0FFF5
:100A3D00227F011224CCAB67AA68A969227F01121B
:100A4D0024CCAB67AA68A96922E4FF1224CCAB675A
:100A5D00AA68A969227F011224CCAB67AA68A9698B
:100A6D0022E4FF1224CCAB67AA68A969227F011288
:100A7D0024CCAB67AA68A96922E4FF1224CCAB672A
:100A8D00AA68A969227F011224CCAB67AA68A9695B
:100A9D0022E4FF1224CCAB67AA68A969227F011258
:100AAD0024CCAB67AA68A96922E4FF1224CCAB67FA
:050ABD00AA68A96922EE
:0E0F54008F6A8E698D688C678B6B8A6C896DD5
:100F6200757600757700757800E56F4570456E609F
:100F72003C120159FFAB6EAA6FA970E5F08FF01217
:100F820001BCAB6EE5702402F9E4356FFAC003C010
:100F920002C001AB6BAA6CA96D120159D001D0023B
:100FA200D00329F9EA35F08B76F5778978AB6BE5D2
:100FB2006D2402F9E4356CFAC002C001AA6CA96D75
:100FC200120159D001D00229F9EA35F08B73F57478
:100FD2008975120E6970030210ACAB73E575157555
:100FE2007002157414F9AA74120056903064F0E479
:100FF200A3F0F579F57A120E697003021087C3E542
:101002007A9408E57964809480507A74FF2FF56AA7
:10101200EE34FFF569ED34FFF568EC34FFF567E572
:10102200724571600C120E6970077D017F021224F5
:10103200A0903064E05401FD7F041224A09030643B
:10104200E0C313F0E4FD7F011224A0E57745784563
:1010520076602012256A903066EFF0903065E0FFEE
:10106200AE7AA3E0FDA806088002C333D8FC4F90F5
:101072003065F07D017F011224A0057AE57A7002C5
:101082000579020FF8E577457845767003020FD4AB
:10109200903065E0FFAB76E578157870021577142D
:0A10A200F9AA77EF1200BE020FD486
:0110AC002221
:080C67008B4D8A4E894F8D5020
:100C6F00E490305DF0A3F0A3F0A3F0A3F0E550659E
:100C7F00617E0060047F0180027F00903062EEF0A1
:100C8F00A3EFF0AF54AE53AD52AC51EC4D4E4F708D
:100C9F0011120E767003020D96120DCA121ACC02A3
:100CAF000D96AD50120DDEAF54AE53AD52AC518513
:100CBF00586E85596F855A70903062E0F571A3E0D8
:100CCF00F572AB55AA56A957120F54E55C455D4511
:100CDF005B602D85586A85596B855A6C855E6D856D
:100CEF005F6E85606FAB5BAA5CA95D121D29EF4E2D
:100CFF0070047F0180027F0090305FE4F0A3EFF07B
:100D0F00903062E07002A3E06063120F077401126B
:100D1F00009C90305FE07002A3E0603E120E7660A0
:100D2F0039903061E0C3956650307D06120DDE12AA
:100D3F000F077D0412086FAF65AE64AD63AC6278C8
:100D4F000212021EE5652FF565E5643EF564E56365
:100D5F003DF563E5623CF5628008120F07AD611245
:100D6F00086F120E766006120DCA121ACC90305F01
:100D7F00E07002A3E06010903061E0FF04F0EFC379
:100D8F0095665003020CB190305FE07002A3E060F3
:100D9F0021E5666014903061E0D39566400B90308A
:100DAF005DE4F0A37403F0800990305DE4F0A37468
:0A0DBF0002F090305DE0FEA3E0FFBB
:100DC90022AB4DAA4EA94F7D0112086FAF65AE64E3
:0F0DD900AD63AC6222AB4DAA4EA94F12086F2238
:1019D0008B328A3389348F388E378D368C35AB3BDA
:1019E000AA3CA93DAD3AAC39122169E542454345CF
:1019F00041600DAB41AA42A943AD3AAC391221690D
:101A0000853854853753853652853551853B558504
:101A10003C56853D57853E58853F5985405A8541FE
:101A20005B85425C85435D85445E85455F85466098
:101A3000854761854B65854A64854963854862852C
:0E1A40004C66AB32AA33A9347D04120C672227
:08255A00E475F004120DEB2200
:0925510074011200BEE4FEFF2239
:10239E008B2E8A2F8930E9120F0EFAC002C001AAC5
:1023AE002FA930120F15FDACF0D001D00212216909
:0423BE00E4FEFF2218
:061828008B2E8A2F89308F
:10182E007B017A30795712232E1218AD9030581250
:10183E000E934009120F1B120EE10218A31218ADDF
:10184E00AB2EE530120E83352FFA122169AB2EE541
:10185E00302408F9E4352FFAC003C002C0019030DD
:10186E0057E0FFE48F54F553F552F551E530241649
:10187E00F9E4352F120E2AAA2FA930120E13E4F511
:10188E0066D001D002D0037D0B120C67120F1B9095
:0E189E000006EE8FF01201DB120F1B120DF18F
:0E18AC0022903057E0FFE4FCFDFE1223C22222
:0615B8008B2E8A2F893002
:1015BE00120E0CFA7D027C00122169AB2EE530244E
:1015CE0016F9E4352FFA121C3F9030571202991279
:1015DE000E5BFF1223C290305B120E934009120F66
:1015EE0022120EE102164E120E5BFF1223C2AB2E1A
:1015FE00E530120E83352FFA122169AB2EE5302419
:10160E0008F9E4352FFAC003C002C001120E5BF5D3
:10161E00548E538D528C51E5302416F9E4352F1229
:10162E000E2AAA2FA930120E13E4F566D001D002AD
:10163E00D0037D0B120C67120F22900006EE8FF076
:09164E001201DB120F22120DF152
:011657002270
:101794008B2E8A2F8930120E0CFAC002C001AA2F98
:1017A400A930120F15FDACF0D001D002122169ABA3
:1017B4002EE5302408F9E4352FFAC003C002C00135
:1017C400AA2FA930120F298F548E538D528C511287
:1017D4000E0C8B55F5568957E530241CF9EA340470
:1017E4008B58F559895AE5302419F9EA34028B5B90
:1017F400F55C895DE530120F0E8B5EF55F8960A99B
:101804003090000A120E1690000B12006FF566D08D
:1018140001D002D0037D04120C67AB2EAA2FA9308D
:04182400120DE82297
:100003008B2E8A2F8930120E0CFA7D047C0012216C
:1000130069AB2EE5302416F9E4352FFA121C3FABF9
:0F0023002EAA2FA93090000C120275E4FEFF22C6
:0E16F000E9240BF9E43AFA12232EE4FEFF225D
:101DF3008B2E8A2F8930120EB8120E0CFA7D047CBA
:101E030000122169AB2EE5302416F9E4352FFA12BE
:101E13001C3FAB2EAA2FA930900010120275120F8F
:101E2300291223C2900014EE8FF0120EA1120F1587
:101E3300D39400E5F0648094824006120EE1120E02
:0B1E4300A1AB2EAA2FA930120DF12236
:101CB8008B2E8A2F8930120EE9C003C002C001AAF8
:101CC8002FA930120F29C004C005C006C007120E84
:101CD80001120F2FE530120EC1E530120ECEE5309D
:101CE800120F0E8B44F5458946A930120F36F54779
:101CF80090000C1202458F4B8E4A8D498C489000FB
:101D08000B12006FF54CD007D006D005D004D001D7
:101D1800D002D0031219D0AB2EAA2FA930120DE889
:011D28002298
:061D94008B2E8A2F89301E
:101D9A00120EDBB40E06120F36FF80027F048F315B
:101DAA00AB2EE5302408F9E4352FFAC003C002C08F
:101DBA0001AA2FA930120DFB120F2F753E00753F95
:101DCA0000754000754100754200754300120F3CD2
:101DDA00853147120EF1D001D002D0031219D0ABCF
:081DEA002EAA2FA930120DE80A
:011DF20022CE
:061EA6008B2E8A2F89300B
:101EAC00120EDBB41106120F36FF80027F048F3145
:101EBC00AB2EE5302408F9E4352FFAC003C002C07C
:101ECC0001AA2FA930120DFB120F2FE530120EC1F3
:101EDC00E530120ECE120F3C853147120EF1D001B7
:101EEC00D002D0031219D0AB2EAA2FA930120DE8B4
:011EFC0022C3
:0614D7008B2E8A2F8930E4
:1014DD007B007A00793112232EAB2EE5302408F9EA
:1014ED00E4352FFAAD3112086FAB2EAA2FA93012A9
:0214FD000DE8F8
:0114FF0022CA
:061FA8008B2E8A2F893008
:101FAE00120EB87B007A00793112232EE5316013C0
:101FBE006401600F120F46900006E475F0051201E1
:101FCE00DB8025120F46120EDBB4130DE5319000A7
:101FDE00097002800B740D800CE53190000A7003BD
:0E1FEE0004800274061200D0120F46120DF18C
:011FFC0022C2
:0A252900900006E4F5F0120DEE221A
:061A4E008B2E8A2F893067
:101A5400120E0C121AB7903057F0120E0C121AB75D
:101A6400903058F0120E0CFA7D047C00122169AB00
:101A74002EE5302416F9E4352FFA121C3F90305924
:101A8400120299120EAA903057E0FD6F6006120EF2
:101A9400E912086F903059120E5EFF121ACC120E22
:101AA400AA903058E0FD6F6006120EE912086FE448
:021AB400FEFF33
:101AB60022FA7D017C00122169AB2EAA2FA9309053
:061AC600001812006F225F
:102212008B2B8A2C892D121EFD120E4C9000061259
:10222200018445F07013AB2BE52D2408F9E4352C1D
:10223200FAE4FD12086F120E4CAB2BAA2CA92D1238
:032242000DF12279
:101BC4008B2B8A2C892D90000612018445F07064B9
:101BD400120056705FE92401F9E43AFA12232E1236
:101BE4000F4D900002120245E4FAF9F8EF2401FFC8
:101BF400EA3EFEE93DFDE83CFCAA2CA92D9000023A
:101C0400120275120EDBFFC39418120F4D5022C03E
:101C140002EF75F003A42451F582E43420F58374B3
:101C24000193FA740293F5828A83D0021202FA8035
:0B1C34000312255A120F4D120DF12271
:0A2533007B017A26790012221222A1
:0A253D007B017A267900121BC422EC
:0A254700FAE92FF9EA3EFA02005605
:061C3F008B318A3289336B
:101C4500E4F537F536F535F534F538F539AB31AA20
:101C550032A933120159FFC3E5399FE5F06480F8D5
:101C6500E5386480985043AF37AE36AD35AC34783F
:101C7500081202328F378E368D358C34E92402F9FD
:101C8500E43AFAE92539F9EA3538FA120056FFE55A
:101C9500374FF537E536F536E535F535E534F534C1
:101CA5000539E53970A7053880A3AF37AE36AD35B0
:021CB500AC344D
:011CB700220A
:061D29008B678A688969DE
:101D2F00757000757101120159FFAEF0E5714570C4
:101D3F00604EEF1FAC0670011E4C6044AB67E56947
:101D4F002402F9E43568122547F572AB6AE56C2475
:101D5F0002F9E4356B122547F573E56E456F456D56
:101D6F006011AB6DE56F2402F9E4356E1225475211
:101D7F00725273E572657360B3E4F570F57180AC00
:041D8F00AE70AF7112
:011D9300222D
:042169008C4D8D4EBE
:10216D00E54D854EF01201BCE92402F9E43A8B4F9E
:10217D00F5508951E54E454D601EAB4FAA50A95102
:10218D0012232EE54E154E7002154D74012551F595
:08219D0051E43550F55080DCDF
:0121A5002217
:1022D70090E682E030E004E020E60B90E682E03012
:1022E700E119E030E71590E680E04401F07F147EC5
:0C22F700001220DF90E680E054FEF02290
:1022A80030040990E680E0440AF0800790E680E078
:1022B8004408F07FDC7E051220DF90E65D74FFF0B5
:0F22C80090E65FF05391EF90E680E054F7F0223C
:08256200E4F51DD2E9D2AF221D
:1021A600AD0790E678E020E6F9C2E990E678E044EB
:1021B60080F0ED25E090E679F090E678E030E0F901
:1021C60090E678E04440F090E678E020E6F990E684
:0821D60078E030E1D6D2E922E5
:10224500AC0790E678E020E6F9E51D702390E67886
:10225500E04480F0EC25E090E679F08D18AF03A915
:10226500077519018A1A891BE4F51C751D01D3220E
:02227500C32282
:1021DE00AC0790E678E020E6F9E51D702590E678EC
:1021EE00E04480F0EC25E0440190E679F08D18AFE4
:1021FE0003A9077519018A1A891BE4F51C751D03BD
:04220E00D322C322F2
:03004B000212CAD4
:1012CA00C0E0C083C082C085C084C086758600C065
:1012DA00D075D000C000C001C002C003C006C0075C
:1012EA0090E678E030E206751D060213B490E678BF
:1012FA00E020E10CE51D64026006751D070213B4C7
:10130A00E51D24FE605F14603624FE70030213A5F7
:10131A0024FC70030213B1240860030213B4AB194E
:10132A00AA1AA91BAF1C051C8F8275830012006FB5
:10133A0090E679F0E51C65187070751D05806B9054
:10134A00E679E0AB19AA1AA91BAE1C8E8275830036
:10135A001200D0751D02E5186401704E90E678E01F
:10136A004420F08045E51824FEB51C0790E678E095
:10137A004420F0E51814B51C0A90E678E04440F0E1
:10138A00751D0090E679E0AB19AA1AA91BAE1C8E4E
:10139A00827583001200D0051C800F90E678E04425
:1013AA0040F0751D008003751D005391DFD007D0F2
:1013BA0006D003D002D001D000D0D0D086D084D0BD
:0813CA0085D082D083D0E0320F
:02230300A90728
:10230500AE16AF178F828E83A3E064037017AD01FD
:1023150019ED7001228F828E83E07C002FFDEC3E4B
:08232500FEAF0580DFE4FEFFBE
:01232D00228D
:102468001221DEE51D24FA600E146006240770F3BD
:0C247800D322E4F51DD322E4F51DD3228D
:10248400122245E51D24FA600E146006240770F339
:0C249400D322E4F51DD322E4F51DD32271
:1023550090E682E044C0F090E681F04387010000FA
:042365000000002252
:1020DF008E218F2290E600E054187012E522240121
:1020EF00FFE43521C313F521EF13F522801590E698
:1020FF0000E05418FFBF100BE52225E0F522E52183
:10210F0033F521E5221522AE21700215214E60050F
:06211F0012236980EE228C
:102369007400F58690FDA57C05A3E582458370F987
:012379002241
:030000000218BA29
:0C18BA00787FE4F6D8FD75817F021901EB
:10005600BB010689828A83E0225002E722BBFE02A8
:09006600E32289828A83E49322DB
:10006F00BB010CE58229F582E5833AF583E0225046
:10007F0006E92582F8E622BBFE06E92582F8E22290
:0D008F00E58229F582E5833AF583E49322AA
:10009C00BB010989828A83F8E028F022500327F7F4
:1000AC0022BBFE05F8E328F3228A838982F8E493C5
:0200BC002822F8
:1000BE00BB010689828A83F0225002F722BBFE0121
:0200CE00F3221B
:1000D000F8BB010DE58229F582E5833AF583E8F066
:1000E000225006E92582C8F622BBFE05E92582C812
:0200F000F222FA
:1000F200EF8DF0A4A8F0CF8CF0A428CE8DF0A42E22
:02010200FE22DB
:10010400BC000BBE0029EF8DF084FFADF022E4CCDF
:10011400F875F008EF2FFFEE33FEEC33FCEE9DECA8
:10012400984005FCEE9DFE0FD5F0E9E4CEFD22EDEE
:10013400F8F5F0EE8420D21CFEADF075F008EF2F38
:10014400FFED33FD4007985006D5F0F222C398FD29
:050154000FD5F0EA22C6
:10015900BB010A89828A83E0F5F0A3E02250068771
:10016900F009E71922BBFE07E3F5F009E319228933
:0B017900828A83E493F5F07401932266
:10018400BB0110E58229F582E5833AF583E0F5F0B9
:10019400A3E0225009E92582F886F008E622BBFE96
:1001A4000AE92582F8E2F5F008E222E5832AF583DC
:0801B400E993F5F0A3E99322A1
:1001BC00BB010A89828A83F0E5F0A3F0225006F78E
:0F01CC0009A7F01922BBFE06F3E5F009F319228B
:1001DB00F8BB0111E58229F582E5833AF583E8F056
:1001EB00E5F0A3F0225009E92582C8F608A6F02213
:0D01FB00BBFE09E92582C8F2E5F008F222FA
:10212500C2D5E830E70FB2D5E4C39BFBE49AFAE4E5
:1021350099F9E498F8EC30E717B2D512215B120350
:1021450038E4C39BFBE49AFAE499F9E498F8800330
:1021550012033830D50DE4C39FFFE49EFEE49DFDD8
:04216500E49CFC22D8
:10020800EB9FF5F0EA9E42F0E99D42F0EC6480C86D
:0602180064809845F0220D
:10021E00E86010ECA2E713FCED13FDEE13FEEF13F6
:04022E00FFD8F022E3
:10023200E8600FEFC333FFEE33FEED33FDEC33FC2A
:03024200D8F122CE
:10024500BB010DE58229F582E5833AF5830203D6E4
:100255005007E92582F80203CABBFE07E92582F8A3
:100265000203E2E58229F582E5833AF5830203EE8E
:10027500BB010DE58229F582E5833AF583020299F2
:100285005007E92582F80203FEBBFE07E92582F83F
:0402950002040A2233
:0C029900ECF0A3EDF0A3EEF0A3EFF022D8
:1002A500BB010DE58229F582E5833AF58302042F2A
:1002B5005007E92582F8020416BBFE07E92582F8F6
:0402C50002046022AD
:1002C900D083D082F8E4937012740193700DA3A3C4
:1002D90093F8740193F5828883E473740293B5F0FB
:0D02E900067403936860E9A3A3A3A380D863
:0602F6008A838982E47393
:1018C600021658E493A3F8E493A34003F68001F2CA
:1018D60008DFF48029E493A3F85407240CC8C33323
:1018E600C4540F4420C8834004F456800146F6DFF2
:1018F600E4800B0102040810204080902099E47EC9
:10190600019360BCA3FF543F30E509541FFEE493E6
:10191600A360010ECF54C025E060A840B8E493A3AD
:10192600FAE493A3F8E493A3C8C582C8CAC583CAD8
:10193600F0A3C8C582C8CAC583CADFE9DEE780BE90
:0120DE000001
:1002FC0075F008758200EF2FFFEE33FECD33CDCCB9
:10030C0033CCC58233C5829BED9AEC99E58298403B
:10031C000CF582EE9BFEED9AFDEC99FC0FD5F0D618
:10032C00E4CEFBE4CDFAE4CCF9A88222B800C1B942
:10033C000059BA002DEC8BF084CFCECDFCE5F0CB80
:10034C00F97818EF2FFFEE33FEED33FDEC33FCEBB9
:10035C0033FB10D703994004EB99FB0FD8E5E4F974
:10036C00FA227818EF2FFFEE33FEED33FDEC33FC61
:10037C00C933C910D7059BE99A4007EC9BFCE99A55
:10038C00F90FD8E0E4C9FAE4CCFB2275F010EF2F9A
:10039C00FFEE33FEED33FDCC33CCC833C810D7079A
:1003AC009BEC9AE899400AED9BFDEC9AFCE899F8D5
:0E03BC000FD5F0DAE4CDFBE4CCFAE4C8F92268
:0C03CA00E6FC08E6FD08E6FE08E6FF225F
:0C03D600E0FCA3E0FDA3E0FEA3E0FF229A
:0C03E200E2FC08E2FD08E2FE08E2FF2257
:1003EE00E493FC740193FD740293FE740393FF2255
:0C03FE00ECF608EDF608EEF608EFF6222B
:0C040A00ECF208EDF208EEF208EFF2222E
:10041600D083D082E493F608740193F608740293AD
:09042600F608740393F6740473E4
:10042F00A8828583F0D083D082120446120446122C
:10043F000446120446E473E493A3C583C5F0C58351
:10044F00C8C582C8F0A3C583C5F0C583C8C582C817
:01045F00227A
:10046000D083D082E493F208740193F2087402936B
:09047000F208740393F2740473A2
:00000001FF
