:0A2A2100000102020303040405058E
:101D4200C200C202C201121155C2AF750A1E750B42
:101D52000075121E75131275081E75091C75101E6A
:101D620075113C75141E75155CD2E890E668E04466
:101D720009F090E65CE04435F0D2AF90E680E020D6
:101D8200E105D20412275390E680E054F7F0538E17
:101D9200F812237A12287C300105120F53C2013047
:101DA20003F212299350EDC2031228572000169015
:101DB200E682E030E704E020E1EF90E682E030E600
:0D1DC20004E020E0E41227B01229A480C73D
:021DFE00D322EE
:100F530090E6B9E0120B160FF10010660110E103E1
:100F63000F76060FEB080FE5090FDF0A114D0B0093
:100F730000114190E6BBE024FE602714603824FD95
:100F8300601114602724067050E50A90E6B3F0E57B
:100F93000B803C121DFE503EE51290E6B3F0E513C4
:100FA300802DE50C90E6B3F0E50D8023E50E90E689
:100FB300B3F0E50F801990E6BAE0FF1227DCAA062A
:100FC300A9077B01EA494B600DEE90E6B3F0EF9081
:100FD300E6B4F002114D02113C02113C1229C40285
:100FE300114D121DCF02114D1229B402114D90E67D
:100FF300B8E0247F601514601924027063A200E432
:101003003325E0FFA202E4334F8041E490E740F050
:10101300803F90E6BCE0547EFF7E00E0D394807C6A
:101023000040047D0180027D00EC4EFEED4F242143
:10103300F582742A3EF583E493FF3395E0FEEF24B3
:10104300A1FFEE34E68F82F583E0540190E740F090
:10105300E4A3F090E68AF090E68B7402F002114D5F
:1010630002113C90E6B8E024FE60162402600302FD
:10107300114D90E6BAE0B40105C20002114D021110
:101083003C90E6BAE0705590E6BCE0547EFF7E00EB
:10109300E0D394807C0040047D0180027D00EC4E0F
:1010A300FEED4F2421F582742A3EF583E493FF334A
:1010B30095E0FEEF24A1FFEE34E68F82F583E05442
:1010C300FEF090E6BCE05480131313541FFFE0546A
:1010D3000F2F90E683F0E04420F0806E805B90E673
:1010E300B8E024FE601A2402704F90E6BAE0B4011F
:1010F30004D200805590E6BAE0B40202804C8039F5
:1011030090E6BCE0547EFF7E00E0D394807C0040F8
:10111300047D0180027D00EC4EFEED4F2421F5821B
:10112300742A3EF583E493FF3395E0FEEF24A1FF99
:10113300EE34E68F82F583800D90E6A080081202DC
:1011430000500790E6A0E04401F090E6A0E0448060
:01115300F0AB
:011154002278
:03003300022A3C62
:042A3C0053D8EF324A
:101E000012010002000000402A15068400000102B1
:101E100003010A0600020000004001000902200040
:101E200001010080640904000002FF0000000705B2
:101E3000810240000107058602000200090220001D
:101E400001010080640904000002FF000000070592
:101E500081024000000705860240000004030904D7
:101E6000080349004E0049001A0343006F00630055
:101E700068006C006500610041004D0053003100B6
:0E1E800063000A033000300030003000000024
:0323CF00016E009C
:1011550090E6007410F090E60174A3F0E4F5A8752C
:10116500E8E300000090E60B7403F0000000E49053
:10117500E670F000000090E671F000000090E67265
:10118500F0000000F58075A078F5B1000000F5B21B
:1011950075B40E75B6C000000090E61274E0F0005C
:1011A500000090E610E0547FF000000090E611E0AA
:1011B500547FF000000090E613E0547FF00000003B
:1011C50090E614E0547FF000000090E615E0547FAF
:1011D500F000000090E6047480F00000007482F0D6
:1011E500000000E4F000000090E6187409F0E4F552
:1011F500B0F5A0F580F5B175B28B75B40F75B5FF77
:1012050075B6FE00000090E60174A3F000000075BD
:10121500A80053E8E3000000E490E671F000000048
:1012250090E670F000000090E672F090E610F00095
:10123500000090E61174A0F0000000E490E612F0C2
:1012450000000090E613F000000090E61474E0F052
:10125500000000E490E615F000000090E60B740332
:10126500F000000090E6047480F00000007406F0C1
:10127500000000E4F000000090E6247402F0000095
:1012850000E490E625F000000090E61A7408F000EE
:101295000000E490E618F000000090E619F0000068
:1012A5000090E61BF000000090E60274E8F00000F4
:1012B50000E4F579F578F577F57643B14043B1204B
:1012C50053B1EF43B10253B1FB122A34D207D2888E
:1012D500C2A8D28AC2AAE4F5C8F5CA75CBFFC2ADC9
:1012E50043B108F56E00056EE56EB4FAF8E4F56EE7
:1012F50000056EE56EB4FAF8E4F56E00056EE56E70
:10130500B4FAF8E4F56E00056EE56EB4FAF8E4F5A6
:101315006E00056EE56EB4FAF853B1F753B17FE48C
:10132500F56E00056EE56EB4FAF843B180E4F56E2E
:1013350000056EE56EB4FAF81229D4E4757250759D
:0713450071C3F570F56F2282
:10287C007876120AADAB72AA71A970A86FD3120A3E
:10288C0010500C63B140E4F579F578F577F57622C4
:0C2782007F0C12278E7F3512278EE4FF9B
:10278E007E08AD061EED6019D2B17801EF0880010A
:10279E0023D8FDFF30E004D2B28002C2B2C2B180B3
:0127AE00E149
:0127AF002207
:10290F00E4FE7D80C2A1EF5D24FF92A3D2A1C2A1FC
:08291F00EDC313FD0EBE08EE2E
:01292700228D
:0726BC009034D4E054FEF05D
:1026C300A2A09206C2A0E4FBFA74CD2BF582743467
:1026D3003AF583E0FF12290F0BBB00010AEB6408F4
:0B26E3004A70E6C2A2D2A2A20692A09A
:0126EE0022C9
:0F29D400C2B0122782122782D2B00000D2B122E5
:1024F8007E08AD061EED60357801EF08800123D80F
:10250800FDFF30E00543B110800353B1EF53B1DF55
:1025180000000000000000000000000000000000B3
:0D25280043B120000000000000000080C54D
:012535002283
:102423008D2CC374089DF8EF08800123D8FDFFAEFF
:10243300051DEE60357801EF08800123D8FDFF30DC
:10244300E00543B110800353B1EF53B1DF00000047
:102453000000000000000000000000000043B12065
:0A246300000000000000000080C52A
:01246D00224C
:10237A007F031227DCEF2402FFE43EA9077521013F
:10238A00F52289237A337B3A7D087FF87E7F1221F2
:10239A00975031E4FF743A2FF582E43433F583E041
:1023AA00FEC39420401AEED3947E5014AB21AA2285
:1023BA00A92375F002EFA4F58285F083EE120932A3
:0423CA000FBF08D168
:0123CE0022EC
:032A4000D283221C
:1025E300C283E490E61AF000000090E6A9E07009C7
:1025F30090E6487406F000000090E6047480F00052
:1026030000007406F0000000E4F000000090E61AF9
:072613007408F00000002232
:0A2322008E2C8F2D8D2E8A2F8B300C
:10232C0063B140E4F531E531C3952E503CE52C907A
:10233C0034CAF0E52DA3F0E5302531F582E4352FD4
:10234C00F583E09034CCF07A347BCA7D037F501255
:10235C0028F3400453B1BF227F501225AB052DE565
:0D236C002D7002052C053180BD63B140D3FA
:012379002241
:0A2197008E2C8F2D8D2E8A2F8B3099
:1021A100E4FDF531E52CFF7E000DEE24CAF582E455
:1021B1003434F583EFF00E74CA2EF582E43434F52D
:1021C10083E52DF07A347BCA0D7F501228F340024B
:1021D1008029E4F531E531C3952E5012E5302531E2
:1021E100F582E4352FF58374CDF0053180E7AB300E
:1021F100AA2FAD2E7F501228D7400463B14022D3BD
:0122010022BA
:1029930043B18075724075710D757003756F00D307
:0129A3002211
:1029A40053B17FE47572507571C3F570F56FD3221E
:101DCF0090E680E030E71200000090E6247402F005
:101DDF00000000E490E6258010000000E490E62467
:0F1DEF00F000000090E6257440F0000000D322C1
:1029B400E490E740F090E68AF090E68B04F0D322AE
:1029C400E490E740F090E68AF090E68B04F0D3229E
:1002000000000090E6BAE0A3E0A3E0A3E0A3E0A32F
:10021000E0FEEEFC90E6B8E05480FEA3E0FDEDFFCA
:10022000EE600302089BEF120B160717A20717A335
:100230000252B30258B403ABB806E9B903ABBA0330
:1002400094BB0286BE025EC4029FC5039BCE000023
:10025000089B122A4002089D1225E302089D000017
:1002600000E490E61AF000000090E6047480F000CC
:1002700000007406F0000000E4F000000090E61AB0
:100280007408F002089D90E6BAE030E004D2818064
:1002900002C28190E74074BEF00000000208A59001
:1002A000E6B8E06440600302037B30070AF5A075FE
:1002B000B4BD1222C8C20790E6BEE0752700F5283B
:1002C000A3E0FEEE4227D3E5289490E52794014071
:1002D0000675730A020373E4F525F5267B017A336C
:1002E000793A122A0AE52845276071E490E68AF0F7
:1002F00090E68BF090E6A0E020E1F990E68BE075C7
:100300002900F52AE4F521F522C3E522952AE52105
:100310009529502D74402522F582E434E7F583E0D9
:10032000FFE5262522FDE5253521FC743A2DF582D1
:1003300074333CF583EFF00522E52270CC05218073
:10034000C8E52A2526F526E5293525F525C3E5281E
:10035000952AF528E5279529F527808990E6BAE0C2
:100360007002800F121F1A8F73E573D3940050032D
:1003700002089D75B40DD20702089D90E6B9E09081
:10038000E740F0A3E573F0E490E68AF090E68B7422
:10039000020208AED287C28702089D90E6BAE060EA
:1003A00005D2A002089DC2A002089D00000090E6B0
:1003B000BAE0752500F526A3E0FEEE4225A3E0FD98
:1003C000A3E0FEEEFCA3E0752700F528A3E0FEEE17
:1003D0004227E526120B1603F301067202057D0380
:1003E000057F0404D70504830604D10706870800A7
:1003F00000057D53B0E7852774852875E5284527D6
:100400006055E490E68AF090E68BF000000090E6FC
:10041000A0E020E1F990E68BE0752900F52AE4F5EB
:1004200021F522C3E522952AE5219529501A744029
:100430002522F582E434E7F583E0FF1224F8052253
:10044000E52270DF052180DBC3E528952AF528E544
:10045000279529F52780A500000000000000000076
:1004600043B1020000000000000000000000000096
:100470000053B1FD00000000000000000043B03850
:1004800002057AE528640645276002D322E490E657
:100490008AF090E68BF000000090E6A0E020E1F901
:1004A000C2B0E4F521F52274402522F582E434E758
:1004B000F583E0FF12278E0522E52270020521C395
:1004C0009406E521940040DFD2B00000D2B10205CD
:1004D0007A1229D40206DBE490E68AF090E68BF0EB
:0A04E00000000090E6A0E020E1F922
:1004EA0090E740E0139204E030E103D38001C39225
:1004FA000590E6BCE0F52BA3E014602414603B14DD
:10050A00605224037068E52B30040442808003F4AF
:10051A005280E52B300505F452B2805442B2805025
:10052A00E52B30040442A08003F452A0E52B3005E9
:10053A0005F452B4803A42B48036E52B30040442C2
:10054A00B08003F452B0E52B300505F452B5802093
:10055A0042B5801CE52B30040442B18003F452B149
:10056A00E52B300505F452B6800642B68002D32246
:10057A000206DBD32253B0D790E6BBE0FF7D071219
:10058A00242300000000000000000043B102000024
:10059A0000000000000000000000000053B1FD0050
:1005AA0000000000000000000000000000000043FE
:1005BA00B0380000000000000053B0CFA3E0541F81
:1005CA00FF7D05122423A3E033333354F8FF90E66A
:1005DA00BCE0FEC41354074FFF7D051224231226E4
:1005EA00BCD2B690E6BDE030E204D2B78002C2B710
:1005FA0000000000000000000000000000000000F1
:10060A0043B10200000000000000000000000000EA
:10061A000053B1FD0000000000000000009034D437
:10062A00E04401F01226C390E6BDE030E304D2B7FD
:10063A008002C2B7000000000000000000000000B5
:10064A000000000043B102000000000000000000AA
:10065A00000000000053B1FD00000000000000008F
:10066A000043B038D2B680691226BCC2B7C2B6906F
:10067A0034D4E04401F01226C3D2B68054E490E6A2
:10068A008AF090E68BF000000090E6A0E020E1F905
:10069A00E528640845276002D322E4F521F522C340
:1006AA00E5229528E52195275024AF2274402FF59D
:1006BA0082E434E7F583E0FE74CD2FF582E4343426
:1006CA00F583EEF00522E52270D5052180D11226A8
:1006DA00C363B140E490E68AF090E68BF0C32290BF
:1006EA00E6BAE0600543B104800353B1FB90E740EA
:1006FA0074B9F0000000E490E68AF090E68B04F00A
:10070A0000000090E6A0E04480F002089D90E6BA5E
:10071A00E0752500F526A3E0FEEE422590E6BEE050
:10072A00752700F528A3E0FEEE422790E6B8E064BC
:10073A00C06003020803E528452770030208999060
:10074A00E6A0E020E1F9C3E5289440E527940050AB
:10075A000885272985282A8006752900752A409048
:10076A00E6B9E0B4A335E4F521F522C3E522952ADA
:10077A00E5219529505EE5262522F582E5253521D4
:10078A00F583E0FF74402522F582E434E7F583EF30
:10079A00F00522E52270D4052180D0E4F521F52266
:1007AA00C3E522952AE5219529501874402522F59A
:1007BA0082E434E7F58374CDF00522E52270E10581
:1007CA002180DDAD2A7AE779407F40AB07AF26AEBC
:1007DA0025122197E490E68AF090E68BE52AF02527
:1007EA0026F526E5293525F525C3E528952AF52890
:1007FA00E5279529F52702074090E6B8E0644060AE
:10080A0003020899E52845277003020899E490E64F
:10081A008AF090E68BF090E6A0E020E1F990E68B72
:10082A00E0752900F52A90E6B9E0B4A335E4F5218C
:10083A00F522C3E522952AE52195295036744025EB
:10084A0022F582E434E7F583E0FFE5262522F582E6
:10085A00E5253521F583EFF00522E52270D405213F
:10086A0080D0AD2A7AE779407F40AB07AF26AE2524
:10087A00122322E52A2526F526E5293525F525C35D
:10088A00E528952AF528E5279529F52702080EC3B4
:10089A0022D32290E6B9E090E740F0E490E68AF0AD
:0D08AA0090E68B04F090E6A0E04480F0C3DF
:0108B700221E
:10292800C0E0C083C082D2015391EF90E65D74018C
:08293800F0D082D083D0E03220
:10294000C0E0C083C0825391EF90E65D7404F0D084
:0629500082D083D0E032CA
:10295600C0E0C083C0825391EF90E65D7402F0D070
:0629660082D083D0E032B4
:10261A00C0E0C083C08290E680E030E70E85080CF7
:10262A0085090D85100E85110F800C85100C8511FA
:10263A000D85080E85090F5391EF90E65D7410F031
:07264A00D082D083D0E03202
:012A43003260
:10265100C0E0C083C08290E680E030E70E85080CC0
:1026610085090D85100E85110F800C85100C8511C3
:102671000D85080E85090F5391EF90E65D7420F0EA
:07268100D082D083D0E032CB
:012A4400325F
:012A4500325E
:012A4600325D
:012A4700325C
:012A4800325B
:012A4900325A
:012A4A003259
:012A4B003258
:012A4C003257
:012A4D003256
:012A4E003255
:012A4F003254
:012A50003253
:012A51003252
:012A52003251
:012A53003250
:012A5400324F
:012A5500324E
:012A5600324D
:012A5700324C
:012A5800324B
:012A5900324A
:012A5A003249
:012A5B003248
:012A5C003247
:012A5D003246
:012A5E003245
:012A5F003244
:012A60003243
:012A61003242
:012A62003241
:012A63003240
:012A6400323F
:012A6500323E
:012A6600323D
:012A6700323C
:0423D200027A00008B
:0D29F100ED4C7005EFF452A022EF42A02241
:0C29FE00E4FDFC7F201229F10D0229F1FC
:102830008B458A468947AB7CAA7DA97E057BE57BD3
:10284000AE7A7002057A14F5828E831208D1AB45F8
:07285000AA46A94702092076
:0C2A0A00E4F57AF57B8B7C8A7D897E22C6
:0B2A1600E5A05440C413135403FF223A
:0428BA00AB07AA06B8
:1028BE00900000C3E5829BEA6480F8E5836480980B
:0828CE0050061229FEA380EB65
:0128D60022DF
:1023D60060483000FF2A2BFF19D6FF184DFF191A47
:1023E600FF26EFFF296CFF296CFF29E3FF211FFF62
:1023F6001AB8FF296CFF296CFF1CA9FF1CA9FF1C3A
:10240600A9FF1C07FF1C07FF1C07FF2573FF2202FD
:0C241600FF2202FF175DFF2980FF1B6200
:10226C00E4120920900001120932900002120AD9DE
:10227C0000000000900006E4F5F01209D690000B67
:10228C00E4120932900008E412093290000974013A
:10229C0012093290000A7401120932900010120ACD
:1022AC00D900000000900014E4F5F01209D690005B
:0C22BC000C120AD900000000E4FEFF2212
:06280700AF24E4FCFDFE1D
:10280D008F298E288D278C26E5292407FFE435286E
:10281D00FEE43527FDE43526FCE47B08FAF9F812D1
:03282D0024B422AE
:04289C007F017E003A
:1028A000AD07AC067F101229F1E4FDFC7F20122950
:0A28B000F17D017C007F200229F178
:080CB300AB40AA41A9427D01FA
:080CBB008B5A8A5B895C8D5D98
:100CC300E49034CAF0A3F0E55D704DF55EF55F0581
:100CD3005FE55F7002055EB4D0F5E55EB407F01220
:100CE300289CE4F55EF55FE4FDFC7F201229F17D8D
:100CF300017C007F201229F1055FE55F7002055E2C
:100D0300C39405E55E6480948040DCAB5AAA5BA97A
:100D13005CE4120920020F4AAB5AAA5BA95C1208D1
:100D2300B8FF655D601FE55DB40704EFB4060AE52F
:100D33005DB40E11EF640D600C9034CAE4F0A3743B
:100D430005F0020F4AE55DB5070EB40603020E2651
:100D5300E55DB40D03020EE2AB5AAA5BA95C12086F
:100D6300B8FF655D7003020F4AEF120B160DA40066
:100D73000DA7010DAA020DD0030DF4040E02050EFA
:100D830026060E34070E58080E7C090E8D0A0EB186
:100D93000B0EBF0C0EE20D0EEF0E0F110F00000F26
:100DA30033020E5D020E6EE55DC39409400E1228F8
:100DB3009CAB5AAA5BA95C7409020F44E4FFFE12C0
:100DC30028A0AB5AAA5BA95C7403020F44E55DB487
:100DD3000411E4FFFE1228A0AB5AAA5BA95C7404B9
:100DE300020F4412289CAB5AAA5BA95C7405020F3C
:100DF3004412289CAB5AAA5BA95C7405020F44E514
:100E03005DB40611E4FFFE1228A0AB5AAA5BA95CED
:100E13007406020F4412289CAB5AAA5BA95C74089F
:100E2300020F4412289CAB5AAA5BA95C7407020FF9
:100E330044E55DB40411E4FFFE1228A0AB5AAA5B9B
:100E4300A95C7404020F4412289CAB5AAA5BA95CE8
:100E53007408020F44E55DB40111E4FFFE1228A0FB
:100E6300AB5AAA5BA95C7401020F4412289CAB5ACB
:100E7300AA5BA95C7402020F44E4FFFE1228A0AB34
:100E83005AAA5BA95C740A020F44E55DB40B11E432
:100E9300FFFE1228A0AB5AAA5BA95C740B020F4495
:100EA30012289CAB5AAA5BA95C740C020F4412284B
:100EB3009CAB5AAA5BA95C740C020F44E55DB40DAC
:100EC30011E4FFFE1228A0AB5AAA5BA95C740D02C1
:100ED3000F4412289CAB5AAA5BA95C740F80621260
:100EE300289CAB5AAA5BA95C740E8055E55DB40BD4
:100EF30010E4FFFE1228A0AB5AAA5BA95C740B8016
:100F03004012289CAB5AAA5BA95C740F8033E55D41
:100F1300B40110E4FFFE1228A0AB5AAA5BA95C74CB
:100F230001801E12289CAB5AAA5BA95C7402801133
:100F33009034CAE4F0A37405F0AB5AAA5BA95CE54C
:0F0F43005D120920020D5B9034CAE0FEA3E0FFAF
:010F5200227C
:0E14ED008F5D8E5C8D5B8C5A8B5E8A5F896092
:1014FB00756900756A00756B00E56245634561604F
:10150B003C120954FFAB61AA62A963E5F08FF0129C
:10151B0009B7AB61E5632402F9E43562FAC003C095
:10152B0002C001AB5EAA5FA960120954D001D002C0
:10153B00D00329F9EA35F08B69F56A896BAB5EE567
:10154B00602402F9E4355FFAC002C001AA5FA9600A
:10155B00120954D001D00229F9EA35F08B66F567F0
:10156B008968AF5DAE5CAD5BAC5AEC4D4E4F700312
:10157B00021654786674FFF5F0120AFD1208B89043
:10158B003345F0E4A3F0F56CF56DAF5DAE5CAD5B90
:10159B00AC5AEC4D4E4F7003021634C3E56D9408F4
:1015AB00E56C64809480400302163474FFFBFAF9F7
:1015BB00F8120A038F5D8E5C8D5B8C5AE565456472
:1015CB00600EEC4D4E4F70087D01FC7F101229F11F
:1015DB00903345E05401FD7C007F801229F190335C
:1015EB0045E0C313F0E4FDFC7F201229F1E56A45C9
:1015FB006B45696020122A16903347EFF090334603
:10160B00E0FFAE6DA3E0FDA806088002C333D8FC53
:10161B004F903346F07D017C007F201229F1056D40
:10162B00E56D7002056C021595E56A456B456970B1
:10163B000302156D903346E0FF786974FFF5F012E5
:09164B000AFDEF12092002156DE1
:011654002273
:08134C008B408A4189428D4368
:10135400E490333EF0A3F0A3F0A3F0A3F0E54365DB
:10136400547E0060047F0180027F00903343EEF0DE
:10137400A3EFF0AF47AE46AD45AC44EC4D4E4F70D5
:101384001EAF58AE57AD56AC55EC4D4E4F700302E0
:1013940014B9120CB3AE57AF581228BA0214B9AB31
:1013A40040AA41A942AD43120CBBAF47AE46AD457E
:1013B400AC44854B61854C62854D63903343E0F5C5
:1013C40064A3E0F565AB48AA49A94A1214EDE54FB8
:1013D4004550454E602D854B5D854C5E854D5F8542
:1013E4005160855261855362AB4EAA4FA950121FBA
:1013F400A5EF4E70047F0180027F00903340E4F03B
:10140400A3EFF0903343E07002A3E0700302149F53
:10141400AB40AA41A94274011208FE903340E07027
:1014240002A3E06053AF58AE57AD56AC55EC4D4EE9
:101434004F6045903342E0C39559503CAB40AA41BC
:10144400A9427D06120CBBAB40AA41A9427D0412FD
:101454000CBBAF58AE57AD56AC557802120A26E510
:10146400582FFFE5573EFEE5563DFDE5553C8F58A8
:101474008E578D56F555800BAB40AA41A942AD5409
:10148400120CBBAF58AE57AD56AC55EC4D4E4F6039
:101494000A120CB3AE57AF581228BA903340E0701A
:1014A40002A3E06010903342E0FF04F0EFC39559CB
:1014B40050030213A3903340E07002A3E06021E5DF
:1014C400596014903342E0D39559400B90333EE475
:1014D400F0A37403F0800990333EE4F0A37402F0A7
:0814E40090333EE0FEA3E0FF9F
:0114EC0022DD
:102025008B258A2689278F2B8E2A8D298C28AB2EE6
:10203500AA2FA930AD2DAC2C122536E535453645F0
:1020450034600DAB34AA35A936AD2DAC2C1225362E
:10205500852B47852A46852945852844852E48852B
:102065002F4985304A85314B85324C85334D853432
:102075004E85354F853650853751853852853953CC
:10208500853A54853E58853D57853C56853B558553
:0E2095003F59AB25AA26A9277D0412134C2221
:10296C00900006E475F0041209D690000612097F57
:04297C00FFAEF02298
:092A2B007401120920E4FEFF22EF
:1019D6008B218A228923E9243BF9EA3402FAC002E0
:1019E600C001AA22A92390001412097FFDACF0D0F1
:0A19F60001D002122536E4FEFF22A4
:06184D008B218A22892391
:101853007B007A007924122830122807D3EF94B43E
:10186300EE648094804010AB21AA22A92390000645
:10187300E475F006021907122807AC06AD07AB2181
:10188300E5232416F9E43522FA122536AB21E523A4
:101893002408F9E43522FAC003C002C001E4852418
:1018A30047F546F545F544E5232416F9E435228B3F
:1018B30048F549894A754B00754C00754D00754EC6
:1018C30000754F0075500075510075520075530037
:1018D300AA22A9239000091208D1F55490000C12F2
:1018E3000A4D8F588E578D568C55E4F559D001D03B
:1018F30002D0037D0B12134CAB21AA22A923900023
:1019030006EE8FF01209D6AB21AA22A92390000676
:0619130012097FFFAEF097
:0119190022AB
:06175D008B218A22892382
:10176300E92416F9E43AFA7D027C00122536AB210E
:10177300E5232416F9E43522FA1220A390333A1212
:101783000ACD90333A120AA112280DD3EF94B4EE86
:1017930064809480400975240075250602183190F1
:1017A300333A120AA112280DAC06AD07AB21E5238B
:1017B3002416F9E43522FA122536AB21E523240851
:1017C300F9E43522FAC003C002C00190333A120A89
:1017D300A18F478E468D458C44E5232416F9E435C5
:1017E300228B48F549894A754B00754C00754D00AD
:1017F300754E00754F007550007551007552007598
:101803005300AA22A9239000091208D1F55490008D
:101813000C120A4D8F588E578D568C55E4F559D0BE
:1018230001D002D0037D0B12134C8E248F25E525A6
:1018330045246011AB21AA22A923900006E5248543
:0918430025F01209D6AE24AF25F0
:01184C002279
:06191A008B218A228923C3
:10192000E92416F9E43AFAC002C001AA22A92390D8
:10193000001412097FFDACF0D001D002122536ABA5
:1019400021E5232408F9E43522FAC003C002C001CE
:10195000AA22A923900010120A4D8F478E468D456A
:101960008C44E92416F9E43A8B48F549894AE52381
:101970002484F9EA34018B4BF54C894DE52324CDC1
:10198000F9E43A8B4EF54F8950E523243BF9EA34CC
:10199000028B51F5528953A92390000A1208D1F500
:1019A0005490000C120A4D8F588E578D568C5590BE
:1019B000000B1208D1F559D001D002D0037D0412DA
:1019C000134CEF4E600FAB21AA22A923900006EE24
:0519D0008FF01209D6A2
:0119D50022EF
:1026EF008B218A228923E92416F9E43AFA7D047CA6
:1026FF0000122536AB21E5232416F9E43522FA1210
:10270F0020A3AB21AA22A92390000C120A7DE4FE7C
:02271F00FF2297
:0E29E300E9240BF9E43AFA122830E4FEFF2250
:06211F008B218A228923B6
:10212500E4F524F525E92416F9E43AFA7D047C0062
:10213500122536AB21E5232416F9E43522FA1220BF
:10214500A3AB21AA22A923900010120A7D900010AA
:10215500120A4D12280DAB21AA22A923900014EED4
:102165008FF01209D690001412097FD394B4E5F0CC
:10217500648094804017752400752506AB21AA223A
:10218500A923900006E5248525F01209D6AE24AFD3
:012195002524
:012196002226
:061AB8008B218A22892324
:101ABE00E92408F9E43AFAC003C002C001AA22A937
:101ACE0023900010120A4DC004C005C006C0079036
:101ADE00001412097FF52D85F02CE92416F9E43A4D
:101AEE008B2EF52F8930E5232484F9EA34018B31CE
:101AFE00F5328933E52324CDF9E43A8B34F5358973
:101B0E0036E523243BF9EA34028B37F5388939A9B7
:101B1E002390000A1208D1F53A90000C120A4D8F4C
:101B2E003E8E3D8D3C8C3B90000B1208D1F53FD084
:101B3E0007D006D005D004D001D002D00312202544
:101B4E00EF4E600FAB21AA22A923900006EE8FF074
:031B5E001209D693
:011B61002261
:061CA9008B218A22892331
:101CAF009000011208D1B40E0990000A1208D1FF5A
:101CBF0080027F048F24AB21E5232408F9E4352229
:101CCF00FAC003C002C001AA22A923900010120A71
:101CDF004D90001412097FF52D85F02CE92416F98B
:101CEF00E43A8B2EF52F893075310075320075333C
:101CFF00007534007535007536007537007538007E
:101D0F0075390085243AE4F53EF53DF53CF53BF594
:101D1F003FD001D002D003122025AB21AA22A92344
:101D2F00900006EE8FF01209D690000612097FFF81
:021D3F00AEF004
:011D4100227F
:061C07008B218A228923D3
:101C0D009000011208D1B4110990000A1208D1FFF9
:101C1D0080027F048F24AB21E5232408F9E43522CB
:101C2D00FAC003C002C001AA22A923900010120A13
:101C3D004D90001412097FF52D85F02CE92416F92D
:101C4D00E43A8B2EF52F8930E5232484F9EA34010B
:101C5D008B31F5328933E52324CDF9E43A8B34F514
:101C6D0035893675370075380075390085243AE4A5
:101C7D00F53EF53DF53CF53BF53FD001D002D003E7
:101C8D00122025AB21AA22A923900006EE8FF01277
:0B1C9D0009D690000612097FFFAEF090
:011CA8002219
:062573008B218A2289235E
:102579007B007A007924122830AB21E5232408F95D
:10258900E43522FAAD24120CBBAB21AA22A923906F
:102599000006EE8FF01209D690000612097FFFAEF1
:0125A900F041
:0125AA00220E
:062202008B218A228923D2
:10220800E4F524F525FB7A007926122830E52660C6
:102218000C64016008752400752505802BAB21AA84
:1022280022A9239000011208D1B4130DE5269000CD
:10223800097002800B740D800CE52690000A70036B
:102248000480027406120932E52545246011AB2189
:10225800AA22A923900006E5248525F01209D6AE06
:0322680024AF257B
:01226B002250
:061B62008B218A22892379
:101B6800E92416F9E43AFA7D017C00122536AB2106
:101B7800AA22A9239000181208D1F524E92416F9FD
:101B8800E43AFA7D017C00122536AB21AA22A9236A
:101B98009000181208D1F525E92416F9E43AFA7DDF
:101BA800047C00122536AB21E5232416F9E43522FE
:101BB800FA1220A390333A120ACDAB21AA22A92304
:101BC8009000081208D16524600CE92408F9E43A69
:101BD800FAAD24120CBB90333A120AA11228BAAB00
:101BE80021AA22A9239000081208D16525600CE9D2
:0E1BF8002408F9E43AFAAD25120CBBE4FEFF16
:011C060022BB
:10298000900006E4F5F01209D690000612097FFFC8
:03299000AEF02284
:1022C800751C01751D30751E48AB1CAA1DA91E1270
:1022D800226CAB1CAA1DA91E900006EE8FF01209F5
:1022E800D690000612097F45F0701FAB1CE51E242E
:1022F80008F9E4351DFAE4FD120CBBAB1CAA1DA9B4
:102308001E900006EE8FF01209D6AB1CAA1DA91E5E
:0A23180090000612097FFFAEF022CC
:101F1A00AB1CAA1DA91E90000612097F45F0706B22
:101F2A001208B87066E92401F9E43AFA122830ABCB
:101F3A001CAA1DA91E900002120A4DE47B01FAF99F
:101F4A00F8120A03AB1CAA1DA91E900002120A7DF0
:101F5A009000011208D1FFC39418AB1CAA1DA91E38
:101F6A005026C003C002C001EF75F003A42400F597
:101F7A0082E43430F583120B0D89828A83D001D032
:101F8A0002D003120B40800312296CAB1CAA1DA9B4
:0B1F9A001E90000612097FFFAEF0222F
:0620A3008B268A27892824
:1020A900E4F52CF52BF52AF529F52DF52EAB26AA05
:1020B90027A928120954FFC3E52E9FE5F06480F88B
:1020C900E52D6480985046AF2CAE2BAD2AAC29780B
:1020D90008120A3A8F2C8E2B8D2A8C29E92402F9B1
:1020E900E43AFAE9252EF9EA352DFA1208B8FFE59E
:1020F9002C4FFFE52BFEE52AFDE5298F2C8E2B8D34
:102109002AF529052EE52E70A4052D80A0AF2CAE49
:052119002BAD2AAC29EA
:01211E00229E
:061FA5008B5A8A5B895C87
:101FAB00756300756401120954FFAEF0E564456377
:101FBB006063EF1FAC0670011E4C6059AB5AE55CB9
:101FCB002402F9E4355BFAE92FF9EA3EFA1208B874
:101FDB00F565AB5DE55F2402F9E4355EFAE92FF9AF
:101FEB00EA3EFA1208B8F566E5614562456060188D
:101FFB00AB60E5622402F9E43561FAE92FF9EA3EB8
:10200B00FA1208B852655266E5656566609EE4F59E
:09201B0063F5648097AE63AF64C5
:012024002299
:042536008C408D4107
:10253A00E5408541F01209B7E92402F9E43A8B42F1
:10254A00F5438944E5414540601EAB42AA43A9448C
:10255A00122830E54115417002154074012544F5F1
:08256A0044E43543F54380DC35
:012572002246
:03004300021A009E
:03005300021A008E
:101A0000022928000229560002294000022A430028
:101A100002261A0002265100022A4400022A45002A
:101A2000022A4600022A4700022A4800022A4900E8
:101A3000022A4A00022A4B00022A4C00022A4D00C8
:101A4000022A4E00022A4500022A4F00022A5000B4
:101A5000022A5100022A5200022A5300022A54008C
:101A6000022A5500022A4500022A4500022A4500A2
:101A7000022A5600022A5700022A5800022A590058
:101A8000022A5A00022A5B00022A5C00022A5D0038
:101A9000022A5E00022A5F00022A6000022A610018
:101AA000022A6200022A6300022A6400022A6500F8
:081AB000022A6600022A670009
:1027B00090E682E030E004E020E60B90E682E03034
:1027C000E119E030E71590E680E04401F07F147EE7
:0C27D0000012246E90E680E054FEF0221F
:1027530030040990E680E0440AF0800790E680E0C8
:102763004408F07FDC7E0512246E90E65D74FFF072
:0F27730090E65FF05391EF90E680E054F7F0228C
:082A3400E4F51BD2E9D2AF2248
:1025AB00AD0790E678E020E6F9C2E990E678E044E2
:1025BB0080F0ED25E090E679F090E678E030E0F9F8
:1025CB0090E678E04440F090E678E020E6F990E67B
:0825DB0078E030E1D6D2E922DC
:10272100AC0790E678E020E6F9E51B702390E678A7
:10273100E04480F0EC25E090E679F08D16AF03A936
:10274100077517018A188919E4F51A751B01D32237
:02275100C322A1
:10268800AC0790E678E020E6F9E51B702590E6783F
:10269800E04480F0EC25E0440190E679F08D16AF37
:1026A80003A9077517018A188919E4F51A751B0318
:0426B800D322C32244
:03004B0002165545
:10165500C0E0C083C082C085C084C086758600C0D6
:10166500D075D000C000C001C002C003C006C007CD
:1016750090E678E030E206751B0602173F90E678A3
:10168500E020E10CE51B64026006751B0702173FAD
:10169500E51B24FE605F14603624FE7003021730DC
:1016A50024FC700302173C2408600302173FAB17A4
:1016B500AA18A919AF1A051A8F827583001208D1C5
:1016C50090E679F0E51A65167070751B05806B90CC
:1016D500E679E0AB17AA18A919AE1A8E82758300B0
:1016E500120932751B02E5166401704E90E678E02A
:1016F5004420F08045E51624FEB51A0790E678E00B
:101705004420F0E51614B51A0A90E678E04440F056
:10171500751B0090E679E0AB17AA18A919AE1A8EC9
:1017250082758300120932051A800F90E678E0442D
:1017350040F0751B008003751B005391DFD007D067
:1017450006D003D002D001D000D0D0D086D084D02E
:0817550085D082D083D0E03280
:0227DC00A9074B
:1027DE00AE14AF158F828E83A3E064037017AD0124
:1027EE0019ED7001228F828E83E07C002FFDEC3E6E
:0827FE00FEAF0580DFE4FEFFE1
:0128060022AF
:1028D700122688E51B24FA600E146006240770F39D
:0C28E700D322E4F51BD322E4F51BD3221E
:1028F300122721E51B24FA600E146006240770F3E7
:0C290300D322E4F51BD322E4F51BD32201
:1028570090E682E044C0F090E681F04387010000F3
:04286700000000224B
:10246E008E218F2290E600E054187012E52224018E
:10247E00FFE43521C313F521EF13F522801590E605
:10248E0000E05418FFBF100BE52225E0F522E521F0
:10249E0033F521E5221522AE21700215214E60057D
:0624AE0012286B80EE22F3
:10286B007400F58690FDA57C05A3E582458370F980
:01287B00223A
:03000000021E8E4F
:0C1E8E00787FE4F6D8FD75817E021ED539
:1008B800BB010689828A83E0225002E722BBFE023E
:0908C800E32289828A83E4932271
:1008D100BB010CE58229F582E5833AF583E02250DC
:1008E10006E92582F8E622BBFE06E92582F8E22226
:0D08F100E58229F582E5833AF583E4932240
:1008FE00BB010989828A83F8E028F022500327F78A
:10090E0022BBFE05F8E328F3228A838982F8E4935A
:02091E0028228D
:10092000BB010689828A83F0225002F722BBFE01B6
:02093000F322B0
:10093200F8BB010DE58229F582E5833AF583E8F0FB
:10094200225006E92582C8F622BBFE05E92582C8A7
:02095200F2228F
:10095400BB010A89828A83E0F5F0A3E0225006876E
:10096400F009E71922BBFE07E3F5F009E319228930
:0B097400828A83E493F5F07401932263
:10097F00BB0110E58229F582E5833AF583E0F5F0B6
:10098F00A3E0225009E92582F886F008E622BBFE93
:10099F000AE92582F8E2F5F008E222E5832AF583D9
:0809AF00E993F5F0A3E993229E
:1009B700BB010A89828A83F0E5F0A3F0225006F78B
:0F09C70009A7F01922BBFE06F3E5F009F3192288
:1009D600F8BB0111E58229F582E5833AF583E8F053
:1009E600E5F0A3F0225009E92582C8F608A6F02210
:0D09F600BBFE09E92582C8F2E5F008F222F7
:0D0A0300EF2BFFEE3AFEED39FDEC38FC2242
:1024B400C2D5E830E70FB2D5E4C39BFBE49AFAE453
:1024C40099F9E498F8EC30E717B2D51224EA120B24
:1024D4007EE4C39BFBE49AFAE499F9E498F8800358
:1024E400120B7E30D50DE4C39FFFE49EFEE49DFDF8
:0424F400E49CFC2246
:100A1000EB9FF5F0EA9E42F0E99D42F0EC6480C85D
:060A200064809845F022FD
:100A2600E86010ECA2E713FCED13FDEE13FEEF13E6
:040A3600FFD8F022D3
:100A3A00E8600FEFC333FFEE33FEED33FDEC33FC1A
:030A4A00D8F122BE
:100A4D00BB010DE58229F582E5833AF583020AA102
:100A5D005007E92582F8020C10BBFE07E92582F844
:100A6D00020C1CE58229F582E5833AF583020C28F8
:100A7D00BB010DE58229F582E5833AF583020ACDA6
:100A8D005007E92582F8020C38BBFE07E92582F8EC
:040A9D00020C4422E1
:0C0AA100E0FCA3E0FDA3E0FEA3E0FF22C8
:100AAD007401FF3395E0FEFDFC080808E6CF2FF634
:100ABD0018E6CE3EF618E6CD3DF618E6CC3CF6220D
:0C0ACD00ECF0A3EDF0A3EEF0A3EFF0229C
:100AD900BB010DE58229F582E5833AF583020C69AC
:100AE9005007E92582F8020C50BBFE07E92582F878
:040AF900020C9A222F
:100AFD00FAE6FB0808E625F0F9F618E63AFAF622CA
:090B0D00E0FBA3E0FAA3E0F922E9
:100B1600D083D082F8E4937012740193700DA3A36E
:100B260093F8740193F5828883E473740293686082
:060B3600EFA3A3A380DF82
:060B3C008A838982E47344
:101E9A00021D42E493A3F8E493A34003F68001F2FF
:101EAA0008DFF48029E493A3F85407240CC8C33349
:101EBA00C4540F4420C8834004F456800146F6DF18
:101ECA00E4800B01020408102040809023CFE47EB6
:101EDA00019360BCA3FF543F30E509541FFEE4930D
:101EEA00A360010ECF54C025E060A840B8E493A3D4
:101EFA00FAE493A3F8E493A3C8C582C8CAC583CAFF
:101F0A00F0A3C8C582C8CAC583CADFE9DEE780BEB6
:0124220000B9
:100B420075F008758200EF2FFFEE33FECD33CDCC6A
:100B520033CCC58233C5829BED9AEC99E5829840ED
:100B62000CF582EE9BFEED9AFDEC99FC0FD5F0D6CA
:100B7200E4CEFBE4CDFAE4CCF9A88222B800C1B9F4
:100B82000059BA002DEC8BF084CFCECDFCE5F0CB32
:100B9200F97818EF2FFFEE33FEED33FDEC33FCEB6B
:100BA20033FB10D703994004EB99FB0FD8E5E4F926
:100BB200FA227818EF2FFFEE33FEED33FDEC33FC13
:100BC200C933C910D7059BE99A4007EC9BFCE99A07
:100BD200F90FD8E0E4C9FAE4CCFB2275F010EF2F4C
:100BE200FFEE33FEED33FDCC33CCC833C810D7074C
:100BF2009BEC9AE899400AED9BFDEC9AFCE899F887
:0E0C02000FD5F0DAE4CDFBE4CCFAE4C8F92219
:0C0C1000E6FC08E6FD08E6FE08E6FF2210
:0C0C1C00E2FC08E2FD08E2FE08E2FF2214
:100C2800E493FC740193FD740293FE740393FF2212
:0C0C3800ECF608EDF608EEF608EFF622E8
:0C0C4400ECF208EDF208EEF208EFF222EC
:100C5000D083D082E493F608740193F6087402936B
:090C6000F608740393F6740473A2
:100C6900A8828583F0D083D082120C80120C801266
:100C79000C80120C80E473E493A3C583C5F0C5838B
:100C8900C8C582C8F0A3C583C5F0C583C8C582C8D5
:010C99002238
:100C9A00D083D082E493F208740193F20874029329
:090CAA00F208740393F274047360
:00000001FF
