:1017000012010002000000402A151C8400000102A2
:1017100003010A060002000000400100090219004E
:1017200001010080C80904000001FF000000070556
:1017300082020002000902190001010080C80904A8
:10174000000001FF000000070582024000000403C2
:101750000904080349004E004900160344005600DE
:10176000530031003200380020004600580032009B
:101770001203300030003000300030003000300004
:10178000300012034D005300460054003100300079
:061790003000AF00000074
:03004300021500A3
:0300530002150093
:101500000223B8000223F5000223E2000200420099
:101510000222E6000223080002004A0002005200F4
:101520000216FE000216FF00022475000224760057
:1015300002247700022478000224790002247A0031
:1015400002247B000200520002247C0002247D0061
:1015500002247E0002247F000224800002248100F5
:1015600002248200020052000200520002005200D7
:1015700002248300022484000224850002248600C1
:1015800002248700022488000224890002248A00A1
:1015900002248B0002248C0002248D0002248E0081
:1015A00002248F0002249000022491000224920061
:0815B0000224930002249400C0
:0A2420000001020203030404050595
:10214F00EC4EFEED4F2420F58274243EF583E4938C
:10215F00FF3395E0FEEF24A1FFEE34E68F82F58387
:10216F002290E6BCE0547EFF7E00E0D394807C009A
:01217F00223D
:10165800C200C202C201121192C2AF750C17750DF9
:1016680000751417751512750A17750B1C75121766
:1016780075133575161775174E750817750982D2C3
:10168800E890E668E04409F090E65CE04435F0D282
:10169800AF121E4012108290E680E020E105D204CD
:1016A80012218090E680E054F7F0538EF8C20312BE
:1016B8000032300105120A97C2013003F212004EBF
:1016C80050EDC20312225620001690E682E030E761
:1016D80004E020E1EF90E682E030E604E020E0E478
:0816E8001221AF12247180C72A
:0214FE00D322F7
:100A970090E6B9E07003020B53147003020B9F2416
:100AA700FE7003020BF124FB7003020B4D1470035D
:100AB700020C34147003020B47147003020C342425
:100AC700056003020C2890E6BBE024FE6027146053
:100AD7003824FD601114602724067061E50C90E648
:100AE700B3F0E50D804D1214FE504FE51490E6B3B8
:100AF700F0E515803EE50E90E6B3F0E50F8034E5AE
:100B07001090E6B3F0E511802A90E6BAE0B4EE0A59
:100B1700E50890E6B3F0E509801990E6BAE0FF1220
:100B270021DBAA06A9077B01EA494B600DEE90E697
:100B3700B3F0EF90E6B4F0020C34020C23020C235E
:100B4700122408020C34120036020C3490E6B8E086
:100B5700247F60151460192402703AA200E433253B
:100B6700E0FFA202E4334F8018E490E740F08016DC
:100B770012217040047D0180027D0012214FE05454
:100B87000190E740F0E4A3F090E68AF090E68B74DA
:100B970002F0020C34020C2390E6B8E024FE601643
:100BA70024026003020C3490E6BAE0B40105C200E7
:100BB700020C34020C2390E6BAE0702C122170402C
:100BC700047D0180027D0012214FE054FEF090E683
:100BD700BCE05480131313541FFFE0540F2F90E60B
:100BE70083F0E04420F08045803290E6B8E024FEB0
:100BF700601A2402702690E6BAE0B40104D200809D
:100C07002C90E6BAE0B402028023801012217040D3
:100C1700047D0180027D0012214F800D90E6A080A7
:100C270008120485500790E6A0E04401F090E6A082
:040C3700E04480F025
:010C3B002296
:0300330002004682
:0400460053D8EF326A
:10208200412E46014130470060242E22000000000C
:10209200000000000000000000000000000000003E
:1020A200000000000000000000000000000000002E
:0320B200011E000C
:1013A700F0E4A3F0A3F0A3F0A3F0A3F0A3F0A3F05D
:1013B700A3F0A322F0E490E68AF090E68B22C3E53F
:1013C700249528F524E5239527F5232275F003E5D1
:1013D700221202C9E52175F003A42583F583E022D3
:1013E70074402526F582E434E7F5832290E68BE006
:1013F700752700F52822C3E5269528E52595272298
:101407005391EF90E65D2275F003A42422F582E460
:10141700342EF58322E5282522F522E5273521F507
:101427002122850A0E850B0F85121085131122853F
:10143700120E85130F850A10850B1122142447F508
:1014470082742E3AF58322C3E522940CE521940099
:1014570022FF122284AF05022284C3E5249440E5CB
:0B1467002394002275B40E902E462244
:1011920090E6007410F090E60174A3F0E4F5A875EF
:1011A200E8E30000000090E60B7403F0000000008A
:1011B200E490E670F00000000090E671F00000009C
:1011C2000090E672F000000000F58075A0B875B1DD
:1011D200160000000075B28875B40E75B63E0000A8
:1011E200000090E61274E0F00000000090E610E0CB
:1011F200547FF00000000090E611E0547FF0000000
:10120200000090E613E0547FF00000000090E61426
:10121200E0547FF00000000090E615E0547FF000FB
:1012220000000090E6047480F0000000007482F078
:1012320000000000E4F00000000090E6187409F0DD
:101242000000000090E60274C4F000000000E49088
:10125200E603F00000000090E6097403F0000000CD
:101262000090E62014F000000000E490E621F00077
:1012720000000090E63074C1F00000000090E631FA
:1012820074F2F012246390E67AE04401F0D283E42F
:0D129200F51E00051EE51EB414F8C28322EF
:10232A0043B110E4FEEF30E70543B108800353B12F
:0F233A00F753B1EF43B110EF25E0FF0EBE08E6F9
:012349002271
:101B30008F828E83A3E0FD8F828E83E0FC12140ED1
:101B4000EDF08F828E83A3A3E0FDEC75F003A42457
:101B500023F582E4342EF583EDF08F828E83A3A3E8
:101B6000A3E0FD8F828E83E075F003A42424F58228
:101B7000E4342EF583EDF0E4FDE4FCED12140EE503
:101B8000822CF582E43583F583E0FF12232A0CBC16
:101B900003E90DBD0CE353B1FDE4F51E00051EE5A0
:071BA0001EB432F843B1024C
:011BA700221B
:09227B00A3E0FF122284A3E0FF9E
:10228400C2A2E4FEEF30E704D2A18002C2A1D2A22E
:0A229400C2A2EF25E0FF0EBE08EA2B
:01229E00221D
:10234A00E4FFC2A2FED2A230A0054307018000C268
:0E235A00A2EE64076004EF25E0FF0EBE08E768
:012368002252
:0A1DEB008E2B8F2C8D2D8A2E8B2F4E
:101DF500D287E4F530E530C3952D503BE52B903087
:101E050048F0E52CA3F0E52F2530F582E4352EF5D5
:101E150083E090304AF07A307B487D037F5112236E
:101E2500854003C287227F5112204A052CE52C707C
:0A1E350002052B053080BEC287D3E2
:011E3F002280
:0A1EEA008E2B8F2C8D2D8A2E8B2F4E
:101EF400D287E52B903056F0EFA3F07A307B567DF5
:101F0400027F511223854003C28722E4FFEFC39569
:101F14002D5010E52F2FF582E4352EF58374CDF086
:101F24000F80EAAB2FAA2EAD2D7F511223694003F7
:061F3400C28722C287D320
:011F3A002284
:101E40007F031221DBEF2402FFE43EA90775210185
:101E5000F52289237A307B487D087FF87E7F121E29
:101E6000EA5031E4FF74482FF582E43430F583E022
:101E7000FEC39420401AEED3947E5014AB21AA22C4
:101E8000A92375F002EFA4F58285F083EE1200D04D
:041E90000FBF08D1A7
:011E9400222B
:101082007A307B487D087F387E74121EEA40030264
:101092001191903048E064436003021191A3E0642F
:1010A2004F6003021191A3E0644E6003021191A309
:1010B200E06446600302119190304CE0F523A3E016
:1010C200F524E52445237003021191AE23AF247C5D
:1010D200007D061201048E238F24E4F521F522C33C
:1010E200E5229524E52195234003021191AE21AF1B
:1010F200227C007D061200F2EF2440FFEE3474FEE3
:101102007A307B50121EEA507B903050E0FBB405DF
:1011120027A3E0902E47F0903053E0902E48F090B5
:101122003054E0902E49F0903055E0902E4AF07EF7
:101132002E7F47121B30804CC2A3EB547FFF12223A
:1011420084903051E0FF12228412227B12227BD241
:10115200A3903050E06401702BA3E06403702590EB
:101162003055E0FF20E0047E0180027E00EE700533
:1011720053B1FB800343B104EF20E00553B1DF809C
:0F1182000343B1200522E522700205210210E18E
:01119100223B
:0100320022AB
:04004E00D283D32264
:04247100C283D3222D
:0C003600E490E740F01213BD04F0D32268
:0C240800E490E740F01213BD04F0D32272
:100485000000000090E6BAE0752100F522A3E0FE29
:10049500EE4221A3E0FDA3E0FEEEFCA3E075230000
:1004A500F524A3E0FEEE422390E6B8E05480FEA3D7
:1004B500E0FBEBFF8EF01202D506EE00BD076700EC
:1004C500BE05FD00BF057500C004E680AF072180AD
:1004D500BD082180BE068B80BF054080C000000896
:1004E50040ED64044C705290E7407428F0E4121318
:1004F500B104F0A37404F0E4A3F0A3041213A70459
:10050500F0A37457F0A37449F0A3744EF0A3745587
:10051500F0A37453F0A374421213A71213ACF0D3D3
:10052500E5249428E52394004006752300752428C6
:100535001213BCE524F0020842D322E524640345E6
:1005450023700512144E4002D322902E221213D38B
:1005550090E740F0902E231213D390E741F0902EB0
:10056500241213D390E7421213BB7403F00208421E
:10057500E52464034523700512144E4002D322E49A
:10058500F527F5280528E528AA277002052712145E
:1005950043E522F0E524452360541213BCF0000026
:1005A500000090E6A0E020E1F9E4F525F52690E6C7
:1005B5008BE0FFC3E5269FE5259400501E1213E747
:1005C500E0FF0528E528AA2770020527121443EF46
:1005D500F00526E52670D7052580D390E68BE0FF4C
:1005E500C3E5249FF524E5239400F52380A67E2EFC
:1005F5007F47121B3002081BE52464044523600273
:10060500D322C2A3E522547F121458E52445236062
:10061500331213BCF00000000090E6A0E020E1F9E1
:100625001213F3E4F525F5261213FD50121213E704
:10063500E0FF1222840526E52670ED052580E912E6
:1006450013C580C7D2A3E522640145217035ED6449
:10065500034C702FAF2674402F1213EBE020E004FB
:100665007E0180027E00EE700553B1FB800343B12D
:100675000474402F1213EBE020E00553B1DF800333
:1006850043B12002081BE524640445236002D322FC
:10069500C2A3E5224480121458E524452360459001
:1006A500E6A0E020E1F9121461500885232785248E
:1006B500288006752700752840E4F525F5261213D0
:1006C500FD501212234A1213E7EFF00526E52670B6
:1006D500ED052580E91213BCE528F00000000012A5
:1006E50013C580B5D2A3020842E5244523602A122A
:1006F50013BCF00000000090E6A0E020E1F9121321
:10070500F3FD7AE77B40AF22AE21121DEB4002D309
:100715002212141C1213C580D002081BE5244523A0
:10072500700302084290E6A0E020E1F9121461503E
:10073500088523278524288006752700752840AD60
:10074500287AE77B40AF22AE21121EEA4002D3226F
:1007550012141C1213BCE528F0000000001213C58A
:1007650080BA902E46E0600E43A0B075B4BE122448
:1007750034E4902E46F0D3E5249400E5239402401A
:100785000F903047740AF012146B7401F00208429E
:10079500E4F529F52A7B017A2E7947122414E524FC
:1007A500452360521213BCF00000000090E6A0E063
:1007B50020E1F91213F3E4F525F5261213FD502572
:1007C5001213E7E0FFE52A2526FDE5293525FC740A
:1007D500472DF582742E3CF583EFF00526E526704E
:1007E500DA052580D6E528252AF52AE5273529F5D0
:1007F500291213C580A8E5224521700712146B0440
:10080500F0801312243E903047EFF0D39400400659
:1008150012146B7401F01213BCF08021E5246402FC
:1008250045236002D32290E74074BEF0903047E044
:0E08350090E7411213BB7402F08002D322C37D
:010843002292
:1023B800C0E0C083C082D2011214077401F0D08239
:0523C800D083D0E032DB
:1023E200C0E0C083C0821214077404F0D082D0838C
:0323F200D0E03206
:1023F500C0E0C083C0821214077402F0D082D0837B
:03240500D0E032F2
:1022E600C0E0C083C08290E680E030E70512142982
:1022F60080031214361214077410F0D082D083D0E3
:02230600E032C3
:01004200328B
:10230800C0E0C083C08290E680E030E7051214295F
:1023180080031214361214077420F0D082D083D0B0
:02232800E032A1
:01004A003283
:01005200327B
:0116FE0032B9
:0116FF0032B8
:012475003234
:012476003233
:012477003232
:012478003231
:012479003230
:01247A00322F
:01247B00322E
:01247C00322D
:01247D00322C
:01247E00322B
:01247F00322A
:012480003229
:012481003228
:012482003227
:012483003226
:012484003225
:012485003224
:012486003223
:012487003222
:012488003221
:012489003220
:01248A00321F
:01248B00321E
:01248C00321D
:01248D00321C
:01248E00321B
:01248F00321A
:012490003219
:012491003218
:012492003217
:012493003216
:012494003215
:1023A100BF0206ED24FF92A422EDBF040524FF9293
:0723B100A72224FF92A522E0
:10222F008B528A538954AB7DAA7EA97F057CE57CAE
:10223F00AE7B7002057B14F5828E8312006FAB525A
:07224F00AA53A9540200BECE
:0C241400E4F57BF57C8B7D8A7E897F22BD
:06246B00A2A6E433FF22EB
:0818BC008F6A8E698D688C674C
:1018C4007F407E427D0F7C00AB6AAA69A968A86745
:1018D400D31202084019AF6AAE69AD68AC67E47B05
:1018E4000AFAF9F8121FC98F6A8E698D688C677DB0
:1018F400017F011223A1E4F56EF56DF56CF56BAF74
:101904006AAE69AD68AC67AB6EAA6DA96CA86BC30F
:101914001202085026E4FD7F011223A10D1223A117
:10192400E4FAF9F8E56E2401F56EEA356DF56DE932
:0B193400356CF56CE8356BF56B80C47A
:01193F002285
:101F3B00FF2452FF229FFF182AFF1796FF0003FF73
:101F4B00245BFF245BFF16F0FF1CE3FF1BA8FF24A1
:101F5B005BFF245BFF1C84FF1C84FF1C84FF1D3E66
:101F6B00FF1D3EFF1D3EFF2206FF1E95FF1E95FF28
:081F7B0015B8FF242AFF19BE6E
:100DBD00EE8FF09000061201DB900006120184FF09
:100DCD00AEF022900010120245900014120184F52D
:100DDD003A85F039E92416F9E43A22900009120017
:100DED006FF56190000C1202458F658E648D638CDA
:100DFD0062228B55F5568957755800755900755AED
:100E0D0000755B00755C00755D00755E00755F00BB
:100E1D0075600022AB2BAA2CA92DEE8FF090000649
:100E2D000201DB903048E0FCA3E0FDA3E0FEA3E06F
:100E3D0022AF6AAE69AD68AC67EC4D4E4F22AF651F
:100E4D00AE64AD63AC62EC4D4E4F22AC06AD0724E3
:100E5D0016F9E422AB67AA68A96922EEF0A3EFF0B8
:100E6D00D39400EE6480948222AB2EAA2FA9300277
:100E7D0001DBAB2EAA2FA93090000812006FFF22C4
:100E8D00900006E4F5F00201DB241CF9EA34048B32
:100E9D003EF53F8940222419F9EA34028B41F5428F
:100EAD0089432290000102006F900006E475F00660
:100EBD0022E92408F9E43AFA22E4F54BF54AF5491A
:100ECD00F548F54C22903055E4F0A37405F022ABB3
:100EDD004DAA4EA94F22241FF9EA34062290001480
:100EED00020184AB2EAA2FA93022AB2EAA2FA93036
:100EFD00229000100202458B3BF53C893D2290006B
:100F0D000A02006F75440075450075460022AB2E30
:0C0F1D00AA2FA93022AB2BAA2CA92D2250
:101D9500E41200BE9000011200D09000021202A5CC
:101DA50000000000E4F5F0120E2A90000BE412008A
:101DB500D0900008E41200D090000974011200D000
:101DC50090000A74011200D09000101202A50000C4
:101DD5000000900014120E9090000C1202A5000055
:061DE5000000E4FEFF22F5
:1022C3008F348E338D328C31E5342407FFE435337C
:1022D300FEE43532FDE43531FCE47B08FAF9F8120B
:0322E3001FC922EE
:1023CD00AD077F021223A1E4FD7F011223A17D0140
:0523DD007F010223A1B5
:080844008B678A6889698D6ADF
:10084C00E4903055F0A3F0E56A70357F011223CDAA
:10085C00E4F56BF56CE4FD7F011223A17D017F01B2
:10086C001223A1056CE56C7002056BC39405E56B56
:10087C006480948040DF120E61E41200BE020A0A0A
:10088C00120E61120056FF656A6019E56AB407041E
:10089C00EFB4060AE56AB40E0BEF640D6006120E97
:1008AC00D2020A0AE56AB5070EB40603020960E52E
:1008BC006AB40D030209CA120E61120056FF656A72
:1008CC007003020A0AEFB4100040030209FC9008FE
:1008DC00E1F8282873020911020914020917020908
:1008EC002E02094302094B02096002096802097DC4
:1008FC0002099202099A0209AF0209B70209CA0257
:10090C0009D10209E402098202098AE56AC3940941
:10091C004008120A137409020A04120A2B74030207
:10092C000A04E56AB40408120A2B7404020A0412BD
:10093C000A137405020A04120A1F7405020A04E55C
:10094C006AB40608120A437406020A04120A1F74D7
:10095C0008020A04120A377407020A04E56AB4048E
:10096C0008120A437404020A04120A377408020AB1
:10097C0004E56AB40108120A5B7401020A04120A43
:10098C004F7402020A04120A5B740A020A04E56A32
:10099C00B40B08120A73740B020A04120A4F740C7B
:1009AC00020A04120A67740C020A04E56AB40D0701
:1009BC00120A73740D8041120A67740F803A120A7E
:1009CC007F740E8033E56AB40B07120A8B740B80AC
:1009DC0027120A7F740F8020E56AB40107120A8B74
:1009EC00740180147F011223CD120E6174028008F1
:1009FC00120ED2120E61E56A1200BE0208C39030CC
:060A0C0055E0FEA3E0FF2F
:100A1200227F011223CDAB67AA68A969227F011246
:100A220023CDAB67AA68A96922E4FF1223CDAB6785
:100A3200AA68A969227F011223CDAB67AA68A969B6
:100A420022E4FF1223CDAB67AA68A969227F0112B3
:100A520023CDAB67AA68A96922E4FF1223CDAB6755
:100A6200AA68A969227F011223CDAB67AA68A96986
:100A720022E4FF1223CDAB67AA68A969227F011283
:100A820023CDAB67AA68A96922E4FF1223CDAB6725
:050A9200AA68A9692219
:0E0F29008F6A8E698D688C678B6B8A6C896D00
:100F3700757600757700757800E56F4570456E60CA
:100F47003C120159FFAB6EAA6FA970E5F08FF01242
:100F570001BCAB6EE5702402F9E4356FFAC003C03B
:100F670002C001AB6BAA6CA96D120159D001D00266
:100F7700D00329F9EA35F08B76F5778978AB6BE5FD
:100F87006D2402F9E4356CFAC002C001AA6CA96DA0
:100F9700120159D001D00229F9EA35F08B73F574A3
:100FA7008975120E3E7003021081AB73E5751575D6
:100FB7007002157414F9AA74120056903055F0E4B3
:100FC700A3F0F579F57A120E3E700302105CC3E5C3
:100FD7007A9408E57964809480507A74FF2FF56AD3
:100FE700EE34FFF569ED34FFF568EC34FFF567E59E
:100FF700724571600C120E3E70077D017F0212234D
:10100700A1903055E05401FD7F041223A190305583
:10101700E0C313F0E4FD7F011223A1E5774578458E
:1010270076602012246B903057EFF0903056E0FF37
:10103700AE7AA3E0FDA806088002C333D8FC4F9020
:101047003056F07D017F011223A1057AE57A7002FF
:101057000579020FCDE577457845767003020FA92C
:10106700903056E0FFAB76E5781578700215771467
:0A107700F9AA77EF1200BE020FA9DC
:01108100224C
:080C3C008B4D8A4E894F8D504B
:100C4400E490304EF0A3F0A3F0A3F0A3F0E55065D8
:100C5400617E0060047F0180027F00903053EEF0DB
:100C6400A3EFF0AF54AE53AD52AC51EC4D4E4F70B8
:100C740011120E4B7003020D6B120D9F1218BC0261
:100C84000D6BAD50120DB3AF54AE53AD52AC518594
:100C9400586E85596F855A70903053E0F571A3E012
:100CA400F572AB55AA56A957120F29E55C455D4567
:100CB4005B602D85586A85596B855A6C855E6D8598
:100CC4005F6E85606FAB5BAA5CA95D121C19EF4E69
:100CD40070047F0180027F00903050E4F0A3EFF0B5
:100CE400903053E07002A3E06063120EDC740112D2
:100CF400009C903050E07002A3E0603E120E4B6006
:100D040039903052E0C3956650307D06120DB3120F
:100D14000EDC7D04120844AF65AE64AD63AC62784A
:100D24000212021EE5652FF565E5643EF564E56390
:100D34003DF563E5623CF5628008120EDCAD61129C
:100D44000844120E4B6006120D9F1218BC903050CE
:100D5400E07002A3E06010903052E0FF04F0EFC3B3
:100D640095665003020C86903050E07002A3E06058
:100D740021E5666014903052E0D39566400B9030C4
:100D84004EE4F0A37403F0800990304EE4F0A374B1
:0A0D940002F090304EE0FEA3E0FFF5
:100D9E0022AB4DAA4EA94F7D01120844AF65AE6439
:0F0DAE00AD63AC6222AB4DAA4EA94F120844228E
:101940008B328A3389348F388E378D368C35AB3B6A
:10195000AA3CA93DAD3AAC3912200DE542454345BC
:1019600041600DAB41AA42A943AD3AAC3912200DFA
:10197000853854853753853652853551853B558595
:101980003C56853D57853E58853F5985405A85418F
:101990005B85425C85435D85445E85455F85466029
:1019A000854761854B65854A6485496385486285BD
:0E19B0004C66AB32AA33A9347D04120C3C22E3
:08245B00E475F004120DC0222B
:0924520074011200BEE4FEFF2239
:10229F008B2E8A2F8930E9120EE3FAC002C001AAF1
:1022AF002FA930120EEAFDACF0D001D00212200D92
:0422BF00E4FEFF2218
:06182A008B2E8A2F89308D
:101830007B017A30794812222F1218AF903049126A
:101840000E684009120EF0120EB60218A51218AF5B
:10185000AB2EE530120E58352FFA12200DAB2EE5C7
:10186000302408F9E4352FFAC003C002C0019030DB
:1018700048E0FFE48F54F553F552F551E530241656
:10188000F9E4352F120DFFAA2FA930120DE8E4F567
:1018900066D001D002D0037D0B120C3C120EF090EA
:0E18A0000006EE8FF01201DB120EF0120DC6E4
:0E18AE0022903048E0FFE4FCFDFE1222C3222F
:0615B8008B2E8A2F893002
:1015BE00120DE1FA7D027C0012200DAB2EE53024D7
:1015CE0016F9E4352FFA121AB79030481202991212
:1015DE000E30FF1222C390304C120E684009120ECC
:1015EE00F7120EB602164E120E30FF1222C3AB2E9B
:1015FE00E530120E58352FFA12200DAB2EE53024A1
:10160E0008F9E4352FFAC003C002C001120E30F5FE
:10161E00548E538D528C51E5302416F9E4352F1229
:10162E000DFFAA2FA930120DE8E4F566D001D00205
:10163E00D0037D0B120C3C120EF7900006EE8FF0CD
:09164E001201DB120EF7120DC6A9
:011657002270
:101796008B2E8A2F8930120DE1FAC002C001AA2FC2
:1017A600A930120EEAFDACF0D001D00212200DAB2A
:1017B6002EE5302408F9E4352FFAC003C002C00133
:1017C600AA2FA930120EFE8F548E538D528C5112B1
:1017D6000DE18B55F5568957E530241CF9EA34049A
:1017E6008B58F559895AE5302419F9EA34028B5B8E
:1017F600F55C895DE530120EE38B5EF55F8960A9C5
:101806003090000A120DEB90000B12006FF566D0B7
:1018160001D002D0037D04120C3CAB2EAA2FA930B6
:04182600120DBD22C0
:100003008B2E8A2F8930120DE1FA7D047C00122099
:100013000DAB2EE5302416F9E4352FFA121AB7ABDF
:0F0023002EAA2FA93090000C120275E4FEFF22C6
:0E16F000E9240BF9E43AFA12222FE4FEFF225D
:101CE3008B2E8A2F8930120E8D120DE1FA7D047C22
:101CF3000012200DAB2EE5302416F9E4352FFA122D
:101D03001AB7AB2EAA2FA930900010120275120E2B
:101D1300FE1222C3900014EE8FF0120E76120EEA1A
:101D2300D39400E5F0648094824006120EB6120E3E
:0B1D330076AB2EAA2FA930120DC6229D
:101BA8008B2E8A2F8930120EBEC003C002C001AA34
:101BB8002FA930120EFEC004C005C006C007120DC2
:101BC800D6120F04E530120E96E530120EA3E5305A
:101BD800120EE38B44F5458946A930120F0BF547E1
:101BE80090000C1202458F4B8E4A8D498C4890000C
:101BF8000B12006FF54CD007D006D005D004D001E9
:101C0800D002D003121940AB2EAA2FA930120DBD55
:011C180022A9
:061C84008B2E8A2F89302F
:101C8A00120EB0B40E06120F0BFF80027F048F31C2
:101C9A00AB2EE5302408F9E4352FFAC003C002C0A0
:101CAA0001AA2FA930120DD0120F04753E00753FFC
:101CBA0000754000754100754200754300120F110E
:101CCA00853147120EC6D001D002D003121940AB9B
:081CDA002EAA2FA930120DBD46
:011CE20022DF
:061D3E008B2E8A2F893074
:101D4400120EB0B41106120F0BFF80027F048F3104
:101D5400AB2EE5302408F9E4352FFAC003C002C0E5
:101D640001AA2FA930120DD0120F04E530120E96DD
:101D7400E530120EA3120F11853147120EC6D001A1
:101D8400D002D003121940AB2EAA2FA930120DBDD8
:011D9400222C
:062206008B2E8A2F8930A7
:10220C007B007A00793112222FAB2EE5302408F9AD
:10221C00E4352FFAAD31120844AB2EAA2FA9301297
:02222C000DBDE6
:01222E00228D
:061E95008B2E8A2F89301C
:101E9B00120E8D7B007A00793112222FE5316013FF
:101EAB006401600F120F1B900006E475F005120120
:101EBB00DB8025120F1B120EB0B4130DE531900011
:101ECB00097002800B740D800CE53190000A7003D1
:0E1EDB0004800274061200D0120F1B120DC6F6
:011EE90022D6
:0A242A00900006E4F5F0120DC32245
:0619BE008B2E8A2F8930F8
:1019C400120DE1121A27903048F0120DE1121A2775
:1019D400903049F0120DE1FA7D047C0012200DAB29
:1019E4002EE5302416F9E4352FFA121AB790304A4E
:1019F400120299120E7F903048E0FD6F6006120EBD
:101A0400BE12084490304A120E33FF1218BC120E54
:101A14007F903049E0FD6F6006120EBE120844E468
:021A2400FEFFC3
:101A260022FA7D017C0012200DAB2EAA2FA9309040
:061A3600001812006F22EF
:1020EA008B2B8A2C892D121D95120E219000061217
:1020FA00018445F07013AB2BE52D2408F9E4352C47
:10210A00FAE4FD120844120E21AB2BAA2CA92D12B7
:03211A000DC622CD
:101A3C008B2B8A2C892D90000612018445F0706442
:101A4C00120056705FE92401F9E43AFA12222F12BF
:101A5C000F22900002120245E4FAF9F8EF2401FF7C
:101A6C00EA3EFEE93DFDE83CFCAA2CA92D900002C3
:101A7C00120275120EB0FFC39418120F225022C01E
:101A8C0002EF75F003A4243BF582E4341FF5837454
:101A9C000193FA740293F5828A83D00212030680B2
:0B1AAC000312245B120F22120DC62251
:0A2434007B017A2679001220EA22CB
:0A243E007B017A267900121A3C2275
:0A244800FAE92FF9EA3EFA02005605
:061AB7008B318A328933F5
:101ABD00E4F537F536F535F534F538F539AB31AAAA
:101ACD0032A933120159FFC3E5399FE5F06480F85F
:101ADD00E5386480985043AF37AE36AD35AC3478C9
:101AED00081202328F378E368D358C34E92402F987
:101AFD00E43AFAE92539F9EA3538FA120056FFE5E4
:101B0D00374FF537E536F536E535F535E534F5344A
:101B1D000539E53970A7053880A3AF37AE36AD3539
:021B2D00AC34D6
:011B2F002293
:061C19008B678A688969EF
:101C1F00757000757101120159FFAEF0E5714570D5
:101C2F00604EEF1FAC0670011E4C6044AB67E56958
:101C3F002402F9E43568122448F572AB6AE56C2486
:101C4F0002F9E4356B122448F573E56E456F456D67
:101C5F006011AB6DE56F2402F9E4356E1224485222
:101C6F00725273E572657360B3E4F570F57180AC11
:041C7F00AE70AF7123
:011C8300223E
:04200D008C4D8D4E1B
:10201100E54D854EF01201BCE92402F9E43A8B4FFB
:10202100F5508951E54E454D601EAB4FAA50A9515F
:1020310012222FE54E154E7002154D74012551F5F2
:0820410051E43550F55080DC3C
:012049002274
:1021AF0090E682E030E004E020E60B90E682E0303B
:1021BF00E119E030E71590E680E04401F07F147EEE
:0C21CF0000121F8390E680E054FEF02216
:1021800030040990E680E0440AF0800790E680E0A1
:102190004408F07FDC7E05121F8390E65D74FFF03B
:0F21A00090E65FF05391EF90E680E054F7F02265
:08246300E4F51DD2E9D2AF221D
:10204A00AD0790E678E020E6F9C2E990E678E04448
:10205A0080F0ED25E090E679F090E678E030E0F95E
:10206A0090E678E04440F090E678E020E6F990E6E1
:08207A0078E030E1D6D2E92242
:10211D00AC0790E678E020E6F9E51D702390E678AF
:10212D00E04480F0EC25E090E679F08D18AF03A93E
:10213D00077519018A1A891BE4F51C751D01D32237
:02214D00C322AB
:1020B600AC0790E678E020E6F9E51D702590E67815
:1020C600E04480F0EC25E0440190E679F08D18AF0D
:1020D60003A9077519018A1A891BE4F51C751D03E6
:0420E600D322C3221C
:03004B0002129FFF
:10129F00C0E0C083C082C085C084C086758600C090
:1012AF00D075D000C000C001C002C003C006C00787
:1012BF0090E678E030E206751D0602138990E67815
:1012CF00E020E10CE51D64026006751D070213891D
:1012DF00E51D24FE605F14603624FE700302137A4E
:1012EF0024FC700302138624086003021389AB19D0
:1012FF00AA1AA91BAF1C051C8F8275830012006FE1
:10130F0090E679F0E51C65187070751D05806B907F
:10131F00E679E0AB19AA1AA91BAE1C8E8275830061
:10132F001200D0751D02E5186401704E90E678E04A
:10133F004420F08045E51824FEB51C0790E678E0C0
:10134F004420F0E51814B51C0A90E678E04440F00C
:10135F00751D0090E679E0AB19AA1AA91BAE1C8E79
:10136F00827583001200D0051C800F90E678E04450
:10137F0040F0751D008003751D005391DFD007D01D
:10138F0006D003D002D001D000D0D0D086D084D0E8
:08139F0085D082D083D0E0323A
:0221DB00A90752
:1021DD00AE16AF178F828E83A3E064037017AD0127
:1021ED0019ED7001228F828E83E07C002FFDEC3E75
:0821FD00FEAF0580DFE4FEFFE8
:0122050022B6
:102369001220B6E51D24FA600E146006240770F3E6
:0C237900D322E4F51DD322E4F51DD3228D
:1023850012211DE51D24FA600E146006240770F362
:0C239500D322E4F51DD322E4F51DD32271
:1022560090E682E044C0F090E681F04387010000FA
:042266000000002252
:101F83008E218F2290E600E054187012E52224017E
:101F9300FFE43521C313F521EF13F522801590E6F5
:101FA30000E05418FFBF100BE52225E0F522E521E0
:101FB30033F521E5221522AE21700215214E60056D
:061FC30012226A80EE22EA
:10226A007400F58690FDA57C05A3E582458370F987
:01227A002241
:0300000002147275
:0C147200787FE4F6D8FD75817F0214B984
:10005600BB010689828A83E0225002E722BBFE02A8
:09006600E32289828A83E49322DB
:10006F00BB010CE58229F582E5833AF583E0225046
:10007F0006E92582F8E622BBFE06E92582F8E22290
:0D008F00E58229F582E5833AF583E49322AA
:10009C00BB010989828A83F8E028F022500327F7F4
:1000AC0022BBFE05F8E328F3228A838982F8E493C5
:0200BC002822F8
:1000BE00BB010689828A83F0225002F722BBFE0121
:0200CE00F3221B
:1000D000F8BB010DE58229F582E5833AF583E8F066
:1000E000225006E92582C8F622BBFE05E92582C812
:0200F000F222FA
:1000F200EF8DF0A4A8F0CF8CF0A428CE8DF0A42E22
:02010200FE22DB
:10010400BC000BBE0029EF8DF084FFADF022E4CCDF
:10011400F875F008EF2FFFEE33FEEC33FCEE9DECA8
:10012400984005FCEE9DFE0FD5F0E9E4CEFD22EDEE
:10013400F8F5F0EE8420D21CFEADF075F008EF2F38
:10014400FFED33FD4007985006D5F0F222C398FD29
:050154000FD5F0EA22C6
:10015900BB010A89828A83E0F5F0A3E02250068771
:10016900F009E71922BBFE07E3F5F009E319228933
:0B017900828A83E493F5F07401932266
:10018400BB0110E58229F582E5833AF583E0F5F0B9
:10019400A3E0225009E92582F886F008E622BBFE96
:1001A4000AE92582F8E2F5F008E222E5832AF583DC
:0801B400E993F5F0A3E99322A1
:1001BC00BB010A89828A83F0E5F0A3F0225006F78E
:0F01CC0009A7F01922BBFE06F3E5F009F319228B
:1001DB00F8BB0111E58229F582E5833AF583E8F056
:1001EB00E5F0A3F0225009E92582C8F608A6F02213
:0D01FB00BBFE09E92582C8F2E5F008F222FA
:101FC900C2D5E830E70FB2D5E4C39BFBE49AFAE443
:101FD90099F9E498F8EC30E717B2D5121FFF12030C
:101FE90044E4C39BFBE49AFAE499F9E498F8800382
:101FF90012034430D50DE4C39FFFE49EFEE49DFD2A
:04200900E49CFC2235
:10020800EB9FF5F0EA9E42F0E99D42F0EC6480C86D
:0602180064809845F0220D
:10021E00E86010ECA2E713FCED13FDEE13FEEF13F6
:04022E00FFD8F022E3
:10023200E8600FEFC333FFEE33FEED33FDEC33FC2A
:03024200D8F122CE
:10024500BB010DE58229F582E5833AF5830203E2D8
:100255005007E92582F80203D6BBFE07E92582F897
:100265000203EEE58229F582E5833AF5830203FA76
:10027500BB010DE58229F582E5833AF583020299F2
:100285005007E92582F802040ABBFE07E92582F832
:040295000204162227
:0C029900ECF0A3EDF0A3EEF0A3EFF022D8
:1002A500BB010DE58229F582E5833AF58302043B1E
:1002B5005007E92582F8020422BBFE07E92582F8EA
:0402C50002046C22A1
:0C02C900A42582F582E5F03583F5832240
:1002D500D083D082F8E4937012740193700DA3A3B8
:1002E50093F8740193F5828883E473740293B5F0EF
:0D02F500067403936860E9A3A3A3A380D857
:060302008A838982E47386
:10147E00021658E493A3F8E493A34003F68001F216
:10148E0008DFF48029E493A3F85407240CC8C3336F
:10149E00C4540F4420C8834004F456800146F6DF3E
:1014AE00E4800B0102040810204080902082E47E2C
:1014BE00019360BCA3FF543F30E509541FFEE49333
:1014CE00A360010ECF54C025E060A840B8E493A3FA
:1014DE00FAE493A3F8E493A3C8C582C8CAC583CA25
:1014EE00F0A3C8C582C8CAC583CADFE9DEE780BEDD
:0120B500002A
:1003080075F008758200EF2FFFEE33FECD33CDCCAC
:1003180033CCC58233C5829BED9AEC99E58298402F
:100328000CF582EE9BFEED9AFDEC99FC0FD5F0D60C
:10033800E4CEFBE4CDFAE4CCF9A88222B800C1B936
:100348000059BA002DEC8BF084CFCECDFCE5F0CB74
:10035800F97818EF2FFFEE33FEED33FDEC33FCEBAD
:1003680033FB10D703994004EB99FB0FD8E5E4F968
:10037800FA227818EF2FFFEE33FEED33FDEC33FC55
:10038800C933C910D7059BE99A4007EC9BFCE99A49
:10039800F90FD8E0E4C9FAE4CCFB2275F010EF2F8E
:1003A800FFEE33FEED33FDCC33CCC833C810D7078E
:1003B8009BEC9AE899400AED9BFDEC9AFCE899F8C9
:0E03C8000FD5F0DAE4CDFBE4CCFAE4C8F9225C
:0C03D600E6FC08E6FD08E6FE08E6FF2253
:0C03E200E0FCA3E0FDA3E0FEA3E0FF228E
:0C03EE00E2FC08E2FD08E2FE08E2FF224B
:1003FA00E493FC740193FD740293FE740393FF2249
:0C040A00ECF608EDF608EEF608EFF6221E
:0C041600ECF208EDF208EEF208EFF22222
:10042200D083D082E493F608740193F608740293A1
:09043200F608740393F6740473D8
:10043B00A8828583F0D083D0821204521204521208
:10044B000452120452E473E493A3C583C5F0C5832D
:10045B00C8C582C8F0A3C583C5F0C583C8C582C80B
:01046B00226E
:10046C00D083D082E493F208740193F2087402935F
:09047C00F208740393F274047396
:00000001FF
