:1017000012010002000000402A151C8400000102A2
:1017100003010A060002000000400100090219004E
:1017200001010080C80904000001FF000000070556
:1017300082020002000902190001010080C80904A8
:10174000000001FF000000070582024000000403C2
:101750000904080349004E004900160344005600DE
:10176000530031003200380020004600580032009B
:101770001203300030003000300030003000300004
:10178000300012034D005300460054003100300079
:061790003000AF00000074
:03004300021500A3
:0300530002150093
:101500000223B1000223EE000223DB0002004200AE
:101510000222DF000223010002004A000200520002
:101520000216FE000216FF0002246E0002246F0065
:10153000022470000224710002247200022473004D
:101540000224740002005200022475000224760076
:1015500002247700022478000224790002247A0011
:1015600002247B00020052000200520002005200DE
:1015700002247C0002247D0002247E0002247F00DD
:1015800002248000022481000224820002248300BD
:10159000022484000224850002248600022487009D
:1015A000022488000224890002248A0002248B007D
:0815B00002248C0002248D00CE
:0A241900000102020303040405059C
:10214800EC4EFEED4F2419F58274243EF583E4939A
:10215800FF3395E0FEEF24A1FFEE34E68F82F5838E
:102168002290E6BCE0547EFF7E00E0D394807C00A1
:012178002244
:10165800C200C202C201121192C2AF750C17750DF9
:1016680000751417751512750A17750B1C75121766
:1016780075133575161775174E750817750982D2C3
:10168800E890E668E04409F090E65CE04435F0D282
:10169800AF121E3912108290E680E020E105D204D4
:1016A80012217990E680E054F7F0538EF8C20312C5
:1016B8000032300105120A97C2013003F212004EBF
:1016C80050EDC20312224F20001690E682E030E768
:1016D80004E020E1EF90E682E030E604E020E0E478
:0816E8001221A812246A80C738
:0214FE00D322F7
:100A970090E6B9E07003020B53147003020B9F2416
:100AA700FE7003020BF124FB7003020B4D1470035D
:100AB700020C34147003020B47147003020C342425
:100AC700056003020C2890E6BBE024FE6027146053
:100AD7003824FD601114602724067061E50C90E648
:100AE700B3F0E50D804D1214FE504FE51490E6B3B8
:100AF700F0E515803EE50E90E6B3F0E50F8034E5AE
:100B07001090E6B3F0E511802A90E6BAE0B4EE0A59
:100B1700E50890E6B3F0E509801990E6BAE0FF1220
:100B270021D4AA06A9077B01EA494B600DEE90E69E
:100B3700B3F0EF90E6B4F0020C34020C23020C235E
:100B4700122401020C34120036020C3490E6B8E08D
:100B5700247F60151460192402703AA200E433253B
:100B6700E0FFA202E4334F8018E490E740F08016DC
:100B770012216940047D0180027D00122148E05462
:100B87000190E740F0E4A3F090E68AF090E68B74DA
:100B970002F0020C34020C2390E6B8E024FE601643
:100BA70024026003020C3490E6BAE0B40105C200E7
:100BB700020C34020C2390E6BAE0702C1221694033
:100BC700047D0180027D00122148E054FEF090E68A
:100BD700BCE05480131313541FFFE0540F2F90E60B
:100BE70083F0E04420F08045803290E6B8E024FEB0
:100BF700601A2402702690E6BAE0B40104D200809D
:100C07002C90E6BAE0B402028023801012216940DA
:100C1700047D0180027D00122148800D90E6A080AE
:100C270008120485500790E6A0E04401F090E6A082
:040C3700E04480F025
:010C3B002296
:0300330002004682
:0400460053D8EF326A
:10207B00412E46014130470060242E220000000013
:10208B000000000000000000000000000000000045
:10209B000000000000000000000000000000000035
:0320AB00011E0013
:1013A700F0E4A3F0A3F0A3F0A3F0A3F0A3F0A3F05D
:1013B700A3F0A322F0E490E68AF090E68B22C3E53F
:1013C700249528F524E5239527F5232275F003E5D1
:1013D700221202C9E52175F003A42583F583E022D3
:1013E70074402526F582E434E7F5832290E68BE006
:1013F700752700F52822C3E5269528E52595272298
:101407005391EF90E65D2275F003A42422F582E460
:10141700342EF58322E5282522F522E5273521F507
:101427002122850A0E850B0F85121085131122853F
:10143700120E85130F850A10850B1122142447F508
:1014470082742E3AF58322C3E522940CE521940099
:1014570022FF12227DAF0502227DC3E5249440E5D9
:0B1467002394002275B40E902E462244
:1011920090E6007410F090E60174A3F0E4F5A875EF
:1011A200E8E30000000090E60B7403F0000000008A
:1011B200E490E670F00000000090E671F00000009C
:1011C2000090E672F000000000F58075A0B875B1DD
:1011D200160000000075B28875B40E75B63E0000A8
:1011E200000090E61274E0F00000000090E610E0CB
:1011F200547FF00000000090E611E0547FF0000000
:10120200000090E613E0547FF00000000090E61426
:10121200E0547FF00000000090E615E0547FF000FB
:1012220000000090E6047480F0000000007482F078
:1012320000000000E4F00000000090E6187409F0DD
:101242000000000090E60274C4F000000000E49088
:10125200E603F00000000090E6097403F0000000CD
:101262000090E62014F000000000E490E621F00077
:1012720000000090E63074C1F00000000090E631FA
:1012820074F2F012245C90E67AE04401F0D283E436
:0D129200F51E00051EE51EB414F8C28322EF
:1023230043B110E4FEEF30E70543B108800353B136
:0F233300F753B1EF43B110EF25E0FF0EBE08E600
:012342002278
:101B29008F828E83A3E0FD8F828E83E0FC12140ED8
:101B3900EDF08F828E83A3A3E0FDEC75F003A4245E
:101B490023F582E4342EF583EDF08F828E83A3A3EF
:101B5900A3E0FD8F828E83E075F003A42424F5822F
:101B6900E4342EF583EDF0E4FDE4FCED12140EE50A
:101B7900822CF582E43583F583E0FF1223230CBC24
:101B890003E90DBD0CE353B1FDE4F51E00051EE5A7
:071B99001EB432F843B10253
:011BA0002222
:09227400A3E0FF12227DA3E0FFAC
:10227D00C2A2E4FEEF30E704D2A18002C2A1D2A235
:0A228D00C2A2EF25E0FF0EBE08EA32
:012297002224
:10234300E4FFC2A2FED2A230A0054307018000C26F
:0E235300A2EE64076004EF25E0FF0EBE08E76F
:012361002259
:0A1DE4008E2B8F2C8D2D8A2E8B2F55
:101DEE00D287E4F530E530C3952D503BE52B90308E
:101DFE0048F0E52CA3F0E52F2530F582E4352EF5DD
:101E0E0083E090304AF07A307B487D037F51122375
:101E1E007E4003C287227F51122043052CE52C7091
:0A1E2E0002052B053080BEC287D3E9
:011E38002287
:0A1EE3008E2B8F2C8D2D8A2E8B2F55
:101EED00D287E52B903056F0EFA3F07A307B567DFC
:101EFD00027F5112237E4003C28722E4FFEFC39578
:101F0D002D5010E52F2FF582E4352EF58374CDF08D
:101F1D000F80EAAB2FAA2EAD2D7F51122362400305
:061F2D00C28722C287D327
:011F3300228B
:101E39007F031221D4EF2402FFE43EA90775210193
:101E4900F52289237A307B487D087FF87E7F121E30
:101E5900E35031E4FF74482FF582E43430F583E030
:101E6900FEC39420401AEED3947E5014AB21AA22CB
:101E7900A92375F002EFA4F58285F083EE1200D054
:041E89000FBF08D1AE
:011E8D002232
:101082007A307B487D087F387E74121EE34003026B
:101092001191903048E064436003021191A3E0642F
:1010A2004F6003021191A3E0644E6003021191A309
:1010B200E06446600302119190304CE0F523A3E016
:1010C200F524E52445237003021191AE23AF247C5D
:1010D200007D061201048E238F24E4F521F522C33C
:1010E200E5229524E52195234003021191AE21AF1B
:1010F200227C007D061200F2EF2440FFEE3474FEE3
:101102007A307B50121EE3507B903050E0FBB405E6
:1011120027A3E0902E47F0903053E0902E48F090B5
:101122003054E0902E49F0903055E0902E4AF07EF7
:101132002E7F47121B29804CC2A3EB547FFF122241
:101142007D903051E0FF12227D122274122274D25D
:10115200A3903050E06401702BA3E06403702590EB
:101162003055E0FF20E0047E0180027E00EE700533
:1011720053B1FB800343B104EF20E00553B1DF809C
:0F1182000343B1200522E522700205210210E18E
:01119100223B
:0100320022AB
:04004E00D283D32264
:04246A00C283D32234
:0C003600E490E740F01213BD04F0D32268
:0C240100E490E740F01213BD04F0D32279
:100485000000000090E6BAE0752100F522A3E0FE29
:10049500EE4221A3E0FDA3E0FEEEFCA3E075230000
:1004A500F524A3E0FEEE422390E6B8E05480FEA3D7
:1004B500E0FBEBFF8EF01202D506EE00BD076700EC
:1004C500BE05FD00BF057500C004E680AF072180AD
:1004D500BD082180BE068B80BF054080C000000896
:1004E50040ED64044C705290E7407428F0E4121318
:1004F500B104F0A37404F0E4A3F0A3041213A70459
:10050500F0A37457F0A37449F0A3744EF0A3745587
:10051500F0A37453F0A374421213A71213ACF0D3D3
:10052500E5249428E52394004006752300752428C6
:100535001213BCE524F0020842D322E524640345E6
:1005450023700512144E4002D322902E221213D38B
:1005550090E740F0902E231213D390E741F0902EB0
:10056500241213D390E7421213BB7403F00208421E
:10057500E52464034523700512144E4002D322E49A
:10058500F527F5280528E528AA277002052712145E
:1005950043E522F0E524452360541213BCF0000026
:1005A500000090E6A0E020E1F9E4F525F52690E6C7
:1005B5008BE0FFC3E5269FE5259400501E1213E747
:1005C500E0FF0528E528AA2770020527121443EF46
:1005D500F00526E52670D7052580D390E68BE0FF4C
:1005E500C3E5249FF524E5239400F52380A67E2EFC
:1005F5007F47121B2902081BE5246404452360027A
:10060500D322C2A3E522547F121458E52445236062
:10061500331213BCF00000000090E6A0E020E1F9E1
:100625001213F3E4F525F5261213FD50121213E704
:10063500E0FF12227D0526E52670ED052580E912ED
:1006450013C580C7D2A3E522640145217035ED6449
:10065500034C702FAF2674402F1213EBE020E004FB
:100665007E0180027E00EE700553B1FB800343B12D
:100675000474402F1213EBE020E00553B1DF800333
:1006850043B12002081BE524640445236002D322FC
:10069500C2A3E5224480121458E524452360459001
:1006A500E6A0E020E1F9121461500885232785248E
:1006B500288006752700752840E4F525F5261213D0
:1006C500FD50121223431213E7EFF00526E52670BD
:1006D500ED052580E91213BCE528F00000000012A5
:1006E50013C580B5D2A3020842E5244523602A122A
:1006F50013BCF00000000090E6A0E020E1F9121321
:10070500F3FD7AE77B40AF22AE21121DE44002D310
:100715002212141C1213C580D002081BE5244523A0
:10072500700302084290E6A0E020E1F9121461503E
:10073500088523278524288006752700752840AD60
:10074500287AE77B40AF22AE21121EE34002D32276
:1007550012141C1213BCE528F0000000001213C58A
:1007650080BA902E46E0600E43A0B075B4BE122448
:100775002DE4902E46F0D3E5249400E52394024021
:100785000F903047740AF012146B7401F00208429E
:10079500E4F529F52A7B017A2E794712240DE52403
:1007A500452360521213BCF00000000090E6A0E063
:1007B50020E1F91213F3E4F525F5261213FD502572
:1007C5001213E7E0FFE52A2526FDE5293525FC740A
:1007D500472DF582742E3CF583EFF00526E526704E
:1007E500DA052580D6E528252AF52AE5273529F5D0
:1007F500291213C580A8E5224521700712146B0440
:10080500F08013122437903047EFF0D39400400660
:1008150012146B7401F01213BCF08021E5246402FC
:1008250045236002D32290E74074BEF0903047E044
:0E08350090E7411213BB7402F08002D322C37D
:010843002292
:1023B100C0E0C083C082D2011214077401F0D08240
:0523C100D083D0E032E2
:1023DB00C0E0C083C0821214077404F0D082D08393
:0323EB00D0E0320D
:1023EE00C0E0C083C0821214077402F0D082D08382
:0323FE00D0E032FA
:1022DF00C0E0C083C08290E680E030E70512142989
:1022EF0080031214361214077410F0D082D083D0EA
:0222FF00E032CB
:01004200328B
:10230100C0E0C083C08290E680E030E70512142966
:1023110080031214361214077420F0D082D083D0B7
:02232100E032A8
:01004A003283
:01005200327B
:0116FE0032B9
:0116FF0032B8
:01246E00323B
:01246F00323A
:012470003239
:012471003238
:012472003237
:012473003236
:012474003235
:012475003234
:012476003233
:012477003232
:012478003231
:012479003230
:01247A00322F
:01247B00322E
:01247C00322D
:01247D00322C
:01247E00322B
:01247F00322A
:012480003229
:012481003228
:012482003227
:012483003226
:012484003225
:012485003224
:012486003223
:012487003222
:012488003221
:012489003220
:01248A00321F
:01248B00321E
:01248C00321D
:01248D00321C
:10239A00BF0206ED24FF92A422EDBF040524FF929A
:0723AA00A72224FF92A522E7
:102228008B528A538954AB7DAA7EA97F057CE57CB5
:10223800AE7B7002057B14F5828E8312006FAB5261
:07224800AA53A9540200BED5
:0C240D00E4F57BF57C8B7D8A7E897F22C4
:06246400A2A6E433FF22F2
:0819B8008F6A8E698D688C674F
:1019C0007F407E427D0F7C00AB6AAA69A968A86748
:1019D000D31202084019AF6AAE69AD68AC67E47B08
:1019E0000AFAF9F8121FC28F6A8E698D688C67E453
:1019F000F56EF56DF56CF56BAF6AAE69AD68AC6709
:101A0000AB6EAA6DA96CA86BC31202085026E4FD48
:101A10007F0112239A0D12239AE4FAF9F8E56E2455
:101A200001F56EEA356DF56DE9356CF56CE8356BF1
:041A3000F56B80C40E
:011A3400228F
:101F3400FF244BFF2298FF182AFF1796FF0003FF88
:101F44002454FF2454FF16F0FF1CDCFF1BA1FF24C4
:101F540054FF2454FF1C7DFF1C7DFF1C7DFF1D3797
:101F6400FF1D37FF1D37FF21FFFF1E8EFF1E8EFF53
:081F740015B8FF2423FF193A00
:100DBD00EE8FF09000061201DB900006120184FF09
:100DCD00AEF022900010120245900014120184F52D
:100DDD003A85F039E92416F9E43A22900009120017
:100DED006FF56190000C1202458F658E648D638CDA
:100DFD0062228B55F5568957755800755900755AED
:100E0D0000755B00755C00755D00755E00755F00BB
:100E1D0075600022AB2BAA2CA92DEE8FF090000649
:100E2D000201DB903048E0FCA3E0FDA3E0FEA3E06F
:100E3D0022AF6AAE69AD68AC67EC4D4E4F22AF651F
:100E4D00AE64AD63AC62EC4D4E4F22AC06AD0724E3
:100E5D0016F9E422AB67AA68A96922EEF0A3EFF0B8
:100E6D00D39400EE6480948222AB2EAA2FA9300277
:100E7D0001DBAB2EAA2FA93090000812006FFF22C4
:100E8D00900006E4F5F00201DB241CF9EA34048B32
:100E9D003EF53F8940222419F9EA34028B41F5428F
:100EAD0089432290000102006F900006E475F00660
:100EBD0022E92408F9E43AFA22E4F54BF54AF5491A
:100ECD00F548F54C22903055E4F0A37405F022ABB3
:100EDD004DAA4EA94F22241FF9EA34062290001480
:100EED00020184AB2EAA2FA93022AB2EAA2FA93036
:100EFD00229000100202458B3BF53C893D2290006B
:100F0D000A02006F75440075450075460022AB2E30
:0C0F1D00AA2FA93022AB2BAA2CA92D2250
:101D8E00E41200BE9000011200D09000021202A5D3
:101D9E0000000000E4F5F0120E2A90000BE4120091
:101DAE00D0900008E41200D090000974011200D007
:101DBE0090000A74011200D09000101202A50000CB
:101DCE000000900014120E9090000C1202A500005C
:061DDE000000E4FEFF22FC
:1022BC008F348E338D328C31E5342407FFE4353383
:1022CC00FEE43532FDE43531FCE47B08FAF9F81212
:0322DC001FC222FC
:1023C600AD077F0212239AE4FD7F0112239A7D0155
:0523D6007F0102239AC3
:080844008B678A6889698D6ADF
:10084C00E4903055F0A3F0E56A70357F011223C6B1
:10085C00E4F56BF56CE4FD7F0112239A7D017F01B9
:10086C0012239A056CE56C7002056BC39405E56B5D
:10087C006480948040DF120E61E41200BE020A0A0A
:10088C00120E61120056FF656A6019E56AB407041E
:10089C00EFB4060AE56AB40E0BEF640D6006120E97
:1008AC00D2020A0AE56AB5070EB40603020960E52E
:1008BC006AB40D030209CA120E61120056FF656A72
:1008CC007003020A0AEFB4100040030209FC9008FE
:1008DC00E1F8282873020911020914020917020908
:1008EC002E02094302094B02096002096802097DC4
:1008FC0002099202099A0209AF0209B70209CA0257
:10090C0009D10209E402098202098AE56AC3940941
:10091C004008120A137409020A04120A2B74030207
:10092C000A04E56AB40408120A2B7404020A0412BD
:10093C000A137405020A04120A1F7405020A04E55C
:10094C006AB40608120A437406020A04120A1F74D7
:10095C0008020A04120A377407020A04E56AB4048E
:10096C0008120A437404020A04120A377408020AB1
:10097C0004E56AB40108120A5B7401020A04120A43
:10098C004F7402020A04120A5B740A020A04E56A32
:10099C00B40B08120A73740B020A04120A4F740C7B
:1009AC00020A04120A67740C020A04E56AB40D0701
:1009BC00120A73740D8041120A67740F803A120A7E
:1009CC007F740E8033E56AB40B07120A8B740B80AC
:1009DC0027120A7F740F8020E56AB40107120A8B74
:1009EC00740180147F011223C6120E6174028008F8
:1009FC00120ED2120E61E56A1200BE0208C39030CC
:060A0C0055E0FEA3E0FF2F
:100A1200227F011223C6AB67AA68A969227F01124D
:100A220023C6AB67AA68A96922E4FF1223C6AB6793
:100A3200AA68A969227F011223C6AB67AA68A969BD
:100A420022E4FF1223C6AB67AA68A969227F0112BA
:100A520023C6AB67AA68A96922E4FF1223C6AB6763
:100A6200AA68A969227F011223C6AB67AA68A9698D
:100A720022E4FF1223C6AB67AA68A969227F01128A
:100A820023C6AB67AA68A96922E4FF1223C6AB6733
:050A9200AA68A9692219
:0E0F29008F6A8E698D688C678B6B8A6C896D00
:100F3700757600757700757800E56F4570456E60CA
:100F47003C120159FFAB6EAA6FA970E5F08FF01242
:100F570001BCAB6EE5702402F9E4356FFAC003C03B
:100F670002C001AB6BAA6CA96D120159D001D00266
:100F7700D00329F9EA35F08B76F5778978AB6BE5FD
:100F87006D2402F9E4356CFAC002C001AA6CA96DA0
:100F9700120159D001D00229F9EA35F08B73F574A3
:100FA7008975120E3E7003021081AB73E5751575D6
:100FB7007002157414F9AA74120056903055F0E4B3
:100FC700A3F0F579F57A120E3E700302105CC3E5C3
:100FD7007A9408E57964809480507A74FF2FF56AD3
:100FE700EE34FFF569ED34FFF568EC34FFF567E59E
:100FF700724571600C120E3E70077D017F0212234D
:101007009A903055E05401FD7F0412239A90305591
:10101700E0C313F0E4FD7F0112239AE57745784595
:10102700766020122464903057EFF0903056E0FF3E
:10103700AE7AA3E0FDA806088002C333D8FC4F9020
:101047003056F07D017F0112239A057AE57A700206
:101057000579020FCDE577457845767003020FA92C
:10106700903056E0FFAB76E5781578700215771467
:0A107700F9AA77EF1200BE020FA9DC
:01108100224C
:080C3C008B4D8A4E894F8D504B
:100C4400E490304EF0A3F0A3F0A3F0A3F0E55065D8
:100C5400617E0060047F0180027F00903053EEF0DB
:100C6400A3EFF0AF54AE53AD52AC51EC4D4E4F70B8
:100C740011120E4B7003020D6B120D9F1219B80264
:100C84000D6BAD50120DB3AF54AE53AD52AC518594
:100C9400586E85596F855A70903053E0F571A3E012
:100CA400F572AB55AA56A957120F29E55C455D4567
:100CB4005B602D85586A85596B855A6C855E6D8598
:100CC4005F6E85606FAB5BAA5CA95D121C12EF4E70
:100CD40070047F0180027F00903050E4F0A3EFF0B5
:100CE400903053E07002A3E06063120EDC740112D2
:100CF400009C903050E07002A3E0603E120E4B6006
:100D040039903052E0C3956650307D06120DB3120F
:100D14000EDC7D04120844AF65AE64AD63AC62784A
:100D24000212021EE5652FF565E5643EF564E56390
:100D34003DF563E5623CF5628008120EDCAD61129C
:100D44000844120E4B6006120D9F1219B8903050D1
:100D5400E07002A3E06010903052E0FF04F0EFC3B3
:100D640095665003020C86903050E07002A3E06058
:100D740021E5666014903052E0D39566400B9030C4
:100D84004EE4F0A37403F0800990304EE4F0A374B1
:0A0D940002F090304EE0FEA3E0FFF5
:100D9E0022AB4DAA4EA94F7D01120844AF65AE6439
:0F0DAE00AD63AC6222AB4DAA4EA94F120844228E
:1018BC008B328A3389348F388E378D368C35AB3BEF
:1018CC00AA3CA93DAD3AAC39122006E54245434548
:1018DC0041600DAB41AA42A943AD3AAC3912200686
:1018EC00853854853753853652853551853B55851A
:1018FC003C56853D57853E58853F5985405A854114
:10190C005B85425C85435D85445E85455F854660AD
:10191C00854761854B65854A648549638548628541
:0E192C004C66AB32AA33A9347D04120C3C2267
:08245400E475F004120DC02232
:09244B0074011200BEE4FEFF2240
:102298008B2E8A2F8930E9120EE3FAC002C001AAF8
:1022A8002FA930120EEAFDACF0D001D002122006A0
:0422B800E4FEFF221F
:06182A008B2E8A2F89308D
:101830007B017A3079481222281218AF9030491271
:101840000E684009120EF0120EB60218A51218AF5B
:10185000AB2EE530120E58352FFA122006AB2EE5CE
:10186000302408F9E4352FFAC003C002C0019030DB
:1018700048E0FFE48F54F553F552F551E530241656
:10188000F9E4352F120DFFAA2FA930120DE8E4F567
:1018900066D001D002D0037D0B120C3C120EF090EA
:0E18A0000006EE8FF01201DB120EF0120DC6E4
:0E18AE0022903048E0FFE4FCFDFE1222BC2236
:0615B8008B2E8A2F893002
:1015BE00120DE1FA7D027C00122006AB2EE53024DE
:1015CE0016F9E4352FFA121AB09030481202991219
:1015DE000E30FF1222BC90304C120E684009120ED3
:1015EE00F7120EB602164E120E30FF1222BCAB2EA2
:1015FE00E530120E58352FFA122006AB2EE53024A8
:10160E0008F9E4352FFAC003C002C001120E30F5FE
:10161E00548E538D528C51E5302416F9E4352F1229
:10162E000DFFAA2FA930120DE8E4F566D001D00205
:10163E00D0037D0B120C3C120EF7900006EE8FF0CD
:09164E001201DB120EF7120DC6A9
:011657002270
:101796008B2E8A2F8930120DE1FAC002C001AA2FC2
:1017A600A930120EEAFDACF0D001D002122006AB31
:1017B6002EE5302408F9E4352FFAC003C002C00133
:1017C600AA2FA930120EFE8F548E538D528C5112B1
:1017D6000DE18B55F5568957E530241CF9EA34049A
:1017E6008B58F559895AE5302419F9EA34028B5B8E
:1017F600F55C895DE530120EE38B5EF55F8960A9C5
:101806003090000A120DEB90000B12006FF566D0B7
:1018160001D002D0037D04120C3CAB2EAA2FA930B6
:04182600120DBD22C0
:100003008B2E8A2F8930120DE1FA7D047C00122099
:1000130006AB2EE5302416F9E4352FFA121AB0ABED
:0F0023002EAA2FA93090000C120275E4FEFF22C6
:0E16F000E9240BF9E43AFA122228E4FEFF2264
:101CDC008B2E8A2F8930120E8D120DE1FA7D047C29
:101CEC0000122006AB2EE5302416F9E4352FFA123B
:101CFC001AB0AB2EAA2FA930900010120275120E3A
:101D0C00FE1222BC900014EE8FF0120E76120EEA28
:101D1C00D39400E5F0648094824006120EB6120E45
:0B1D2C0076AB2EAA2FA930120DC622A4
:101BA1008B2E8A2F8930120EBEC003C002C001AA3B
:101BB1002FA930120EFEC004C005C006C007120DC9
:101BC100D6120F04E530120E96E530120EA3E53061
:101BD100120EE38B44F5458946A930120F0BF547E8
:101BE10090000C1202458F4B8E4A8D498C48900013
:101BF1000B12006FF54CD007D006D005D004D001F0
:101C0100D002D0031218BCAB2EAA2FA930120DBDE1
:011C110022B0
:061C7D008B2E8A2F893036
:101C8300120EB0B40E06120F0BFF80027F048F31C9
:101C9300AB2EE5302408F9E4352FFAC003C002C0A7
:101CA30001AA2FA930120DD0120F04753E00753F03
:101CB30000754000754100754200754300120F1115
:101CC300853147120EC6D001D002D0031218BCAB27
:081CD3002EAA2FA930120DBD4D
:011CDB0022E6
:061D37008B2E8A2F89307B
:101D3D00120EB0B41106120F0BFF80027F048F310B
:101D4D00AB2EE5302408F9E4352FFAC003C002C0EC
:101D5D0001AA2FA930120DD0120F04E530120E96E4
:101D6D00E530120EA3120F11853147120EC6D001A8
:101D7D00D002D0031218BCAB2EAA2FA930120DBD64
:011D8D002233
:0621FF008B2E8A2F8930AF
:102205007B007A007931122228AB2EE5302408F9BB
:10221500E4352FFAAD31120844AB2EAA2FA930129E
:022225000DBDED
:012227002294
:061E8E008B2E8A2F893023
:101E9400120E8D7B007A007931122228E53160130D
:101EA4006401600F120F1B900006E475F005120127
:101EB400DB8025120F1B120EB0B4130DE531900018
:101EC400097002800B740D800CE53190000A7003D8
:0E1ED40004800274061200D0120F1B120DC6FD
:011EE20022DD
:0A242300900006E4F5F0120DC3224C
:06193A008B2E8A2F89307C
:10194000120DE11219A3903048F0120DE11219A303
:10195000903049F0120DE1FA7D047C00122006ABB4
:101960002EE5302416F9E4352FFA121AB090304AD9
:10197000120299120E7F903048E0FD6F6006120E41
:10198000BE12084490304A120E33FF1219B8120EDC
:101990007F903049E0FD6F6006120EBE120844E4ED
:0219A000FEFF48
:1019A20022FA7D017C00122006AB2EAA2FA93090CC
:0619B200001812006F2274
:1020E3008B2B8A2C892D121D8E120E219000061225
:1020F300018445F07013AB2BE52D2408F9E4352C4E
:10210300FAE4FD120844120E21AB2BAA2CA92D12BE
:032113000DC622D4
:101A35008B2B8A2C892D90000612018445F0706449
:101A4500120056705FE92401F9E43AFA12222812CD
:101A55000F22900002120245E4FAF9F8EF2401FF83
:101A6500EA3EFEE93DFDE83CFCAA2CA92D900002CA
:101A7500120275120EB0FFC39418120F225022C025
:101A850002EF75F003A42434F582E4341FF5837462
:101A95000193FA740293F5828A83D00212030680B9
:0B1AA50003122454120F22120DC6225F
:0A242D007B017A2679001220E322D9
:0A2437007B017A267900121A352283
:0A244100FAE92FF9EA3EFA0200560C
:061AB0008B318A328933FC
:101AB600E4F537F536F535F534F538F539AB31AAB1
:101AC60032A933120159FFC3E5399FE5F06480F866
:101AD600E5386480985043AF37AE36AD35AC3478D0
:101AE600081202328F378E368D358C34E92402F98E
:101AF600E43AFAE92539F9EA3538FA120056FFE5EB
:101B0600374FF537E536F536E535F535E534F53451
:101B16000539E53970A7053880A3AF37AE36AD3540
:021B2600AC34DD
:011B2800229A
:061C12008B678A688969F6
:101C1800757000757101120159FFAEF0E5714570DC
:101C2800604EEF1FAC0670011E4C6044AB67E5695F
:101C38002402F9E43568122441F572AB6AE56C2494
:101C480002F9E4356B122441F573E56E456F456D75
:101C58006011AB6DE56F2402F9E4356E1224415230
:101C6800725273E572657360B3E4F570F57180AC18
:041C7800AE70AF712A
:011C7C002245
:042006008C4D8D4E22
:10200A00E54D854EF01201BCE92402F9E43A8B4F02
:10201A00F5508951E54E454D601EAB4FAA50A95166
:10202A00122228E54E154E7002154D74012551F500
:08203A0051E43550F55080DC43
:01204200227B
:1021A80090E682E030E004E020E60B90E682E03042
:1021B800E119E030E71590E680E04401F07F147EF5
:0C21C80000121F7C90E680E054FEF02224
:1021790030040990E680E0440AF0800790E680E0A8
:102189004408F07FDC7E05121F7C90E65D74FFF049
:0F21990090E65FF05391EF90E680E054F7F0226C
:08245C00E4F51DD2E9D2AF2224
:10204300AD0790E678E020E6F9C2E990E678E0444F
:1020530080F0ED25E090E679F090E678E030E0F965
:1020630090E678E04440F090E678E020E6F990E6E8
:0820730078E030E1D6D2E92249
:10211600AC0790E678E020E6F9E51D702390E678B6
:10212600E04480F0EC25E090E679F08D18AF03A945
:10213600077519018A1A891BE4F51C751D01D3223E
:02214600C322B2
:1020AF00AC0790E678E020E6F9E51D702590E6781C
:1020BF00E04480F0EC25E0440190E679F08D18AF14
:1020CF0003A9077519018A1A891BE4F51C751D03ED
:0420DF00D322C32223
:03004B0002129FFF
:10129F00C0E0C083C082C085C084C086758600C090
:1012AF00D075D000C000C001C002C003C006C00787
:1012BF0090E678E030E206751D0602138990E67815
:1012CF00E020E10CE51D64026006751D070213891D
:1012DF00E51D24FE605F14603624FE700302137A4E
:1012EF0024FC700302138624086003021389AB19D0
:1012FF00AA1AA91BAF1C051C8F8275830012006FE1
:10130F0090E679F0E51C65187070751D05806B907F
:10131F00E679E0AB19AA1AA91BAE1C8E8275830061
:10132F001200D0751D02E5186401704E90E678E04A
:10133F004420F08045E51824FEB51C0790E678E0C0
:10134F004420F0E51814B51C0A90E678E04440F00C
:10135F00751D0090E679E0AB19AA1AA91BAE1C8E79
:10136F00827583001200D0051C800F90E678E04450
:10137F0040F0751D008003751D005391DFD007D01D
:10138F0006D003D002D001D000D0D0D086D084D0E8
:08139F0085D082D083D0E0323A
:0221D400A90759
:1021D600AE16AF178F828E83A3E064037017AD012E
:1021E60019ED7001228F828E83E07C002FFDEC3E7C
:0821F600FEAF0580DFE4FEFFEF
:0121FE0022BE
:102362001220AFE51D24FA600E146006240770F3F4
:0C237200D322E4F51DD322E4F51DD32294
:10237E00122116E51D24FA600E146006240770F370
:0C238E00D322E4F51DD322E4F51DD32278
:10224F0090E682E044C0F090E681F0438701000001
:04225F000000002259
:101F7C008E218F2290E600E054187012E522240185
:101F8C00FFE43521C313F521EF13F522801590E6FC
:101F9C0000E05418FFBF100BE52225E0F522E521E7
:101FAC0033F521E5221522AE21700215214E600574
:061FBC0012226380EE22F8
:102263007400F58690FDA57C05A3E582458370F98E
:012273002248
:0300000002147275
:0C147200787FE4F6D8FD75817F0214B984
:10005600BB010689828A83E0225002E722BBFE02A8
:09006600E32289828A83E49322DB
:10006F00BB010CE58229F582E5833AF583E0225046
:10007F0006E92582F8E622BBFE06E92582F8E22290
:0D008F00E58229F582E5833AF583E49322AA
:10009C00BB010989828A83F8E028F022500327F7F4
:1000AC0022BBFE05F8E328F3228A838982F8E493C5
:0200BC002822F8
:1000BE00BB010689828A83F0225002F722BBFE0121
:0200CE00F3221B
:1000D000F8BB010DE58229F582E5833AF583E8F066
:1000E000225006E92582C8F622BBFE05E92582C812
:0200F000F222FA
:1000F200EF8DF0A4A8F0CF8CF0A428CE8DF0A42E22
:02010200FE22DB
:10010400BC000BBE0029EF8DF084FFADF022E4CCDF
:10011400F875F008EF2FFFEE33FEEC33FCEE9DECA8
:10012400984005FCEE9DFE0FD5F0E9E4CEFD22EDEE
:10013400F8F5F0EE8420D21CFEADF075F008EF2F38
:10014400FFED33FD4007985006D5F0F222C398FD29
:050154000FD5F0EA22C6
:10015900BB010A89828A83E0F5F0A3E02250068771
:10016900F009E71922BBFE07E3F5F009E319228933
:0B017900828A83E493F5F07401932266
:10018400BB0110E58229F582E5833AF583E0F5F0B9
:10019400A3E0225009E92582F886F008E622BBFE96
:1001A4000AE92582F8E2F5F008E222E5832AF583DC
:0801B400E993F5F0A3E99322A1
:1001BC00BB010A89828A83F0E5F0A3F0225006F78E
:0F01CC0009A7F01922BBFE06F3E5F009F319228B
:1001DB00F8BB0111E58229F582E5833AF583E8F056
:1001EB00E5F0A3F0225009E92582C8F608A6F02213
:0D01FB00BBFE09E92582C8F2E5F008F222FA
:101FC200C2D5E830E70FB2D5E4C39BFBE49AFAE44A
:101FD20099F9E498F8EC30E717B2D5121FF812031A
:101FE20044E4C39BFBE49AFAE499F9E498F8800389
:101FF20012034430D50DE4C39FFFE49EFEE49DFD31
:04200200E49CFC223C
:10020800EB9FF5F0EA9E42F0E99D42F0EC6480C86D
:0602180064809845F0220D
:10021E00E86010ECA2E713FCED13FDEE13FEEF13F6
:04022E00FFD8F022E3
:10023200E8600FEFC333FFEE33FEED33FDEC33FC2A
:03024200D8F122CE
:10024500BB010DE58229F582E5833AF5830203E2D8
:100255005007E92582F80203D6BBFE07E92582F897
:100265000203EEE58229F582E5833AF5830203FA76
:10027500BB010DE58229F582E5833AF583020299F2
:100285005007E92582F802040ABBFE07E92582F832
:040295000204162227
:0C029900ECF0A3EDF0A3EEF0A3EFF022D8
:1002A500BB010DE58229F582E5833AF58302043B1E
:1002B5005007E92582F8020422BBFE07E92582F8EA
:0402C50002046C22A1
:0C02C900A42582F582E5F03583F5832240
:1002D500D083D082F8E4937012740193700DA3A3B8
:1002E50093F8740193F5828883E473740293B5F0EF
:0D02F500067403936860E9A3A3A3A380D857
:060302008A838982E47386
:10147E00021658E493A3F8E493A34003F68001F216
:10148E0008DFF48029E493A3F85407240CC8C3336F
:10149E00C4540F4420C8834004F456800146F6DF3E
:1014AE00E4800B010204081020408090207BE47E33
:1014BE00019360BCA3FF543F30E509541FFEE49333
:1014CE00A360010ECF54C025E060A840B8E493A3FA
:1014DE00FAE493A3F8E493A3C8C582C8CAC583CA25
:1014EE00F0A3C8C582C8CAC583CADFE9DEE780BEDD
:0120AE000031
:1003080075F008758200EF2FFFEE33FECD33CDCCAC
:1003180033CCC58233C5829BED9AEC99E58298402F
:100328000CF582EE9BFEED9AFDEC99FC0FD5F0D60C
:10033800E4CEFBE4CDFAE4CCF9A88222B800C1B936
:100348000059BA002DEC8BF084CFCECDFCE5F0CB74
:10035800F97818EF2FFFEE33FEED33FDEC33FCEBAD
:1003680033FB10D703994004EB99FB0FD8E5E4F968
:10037800FA227818EF2FFFEE33FEED33FDEC33FC55
:10038800C933C910D7059BE99A4007EC9BFCE99A49
:10039800F90FD8E0E4C9FAE4CCFB2275F010EF2F8E
:1003A800FFEE33FEED33FDCC33CCC833C810D7078E
:1003B8009BEC9AE899400AED9BFDEC9AFCE899F8C9
:0E03C8000FD5F0DAE4CDFBE4CCFAE4C8F9225C
:0C03D600E6FC08E6FD08E6FE08E6FF2253
:0C03E200E0FCA3E0FDA3E0FEA3E0FF228E
:0C03EE00E2FC08E2FD08E2FE08E2FF224B
:1003FA00E493FC740193FD740293FE740393FF2249
:0C040A00ECF608EDF608EEF608EFF6221E
:0C041600ECF208EDF208EEF208EFF22222
:10042200D083D082E493F608740193F608740293A1
:09043200F608740393F6740473D8
:10043B00A8828583F0D083D0821204521204521208
:10044B000452120452E473E493A3C583C5F0C5832D
:10045B00C8C582C8F0A3C583C5F0C583C8C582C80B
:01046B00226E
:10046C00D083D082E493F208740193F2087402935F
:09047C00F208740393F274047396
:00000001FF
